{
  "contractName": "Factory",
  "abi": [
    {
      "inputs": [],
      "stateMutability": "nonpayable",
      "type": "constructor"
    },
    {
      "anonymous": false,
      "inputs": [
        {
          "indexed": true,
          "internalType": "address",
          "name": "wallet",
          "type": "address"
        },
        {
          "indexed": false,
          "internalType": "uint256",
          "name": "nonce",
          "type": "uint256"
        },
        {
          "indexed": false,
          "internalType": "uint256",
          "name": "index",
          "type": "uint256"
        },
        {
          "indexed": false,
          "internalType": "uint256",
          "name": "innerIndex",
          "type": "uint256"
        }
      ],
      "name": "BatchMultiSigCallPackedFailed",
      "type": "event"
    },
    {
      "anonymous": false,
      "inputs": [
        {
          "indexed": true,
          "internalType": "uint256",
          "name": "mode",
          "type": "uint256"
        },
        {
          "indexed": false,
          "internalType": "uint256",
          "name": "block",
          "type": "uint256"
        },
        {
          "indexed": false,
          "internalType": "uint256",
          "name": "nonce",
          "type": "uint256"
        }
      ],
      "name": "BatchTransfered",
      "type": "event"
    },
    {
      "anonymous": false,
      "inputs": [
        {
          "indexed": true,
          "internalType": "address",
          "name": "previousOwner",
          "type": "address"
        },
        {
          "indexed": true,
          "internalType": "address",
          "name": "newOwner",
          "type": "address"
        }
      ],
      "name": "OwnershipTransferred",
      "type": "event"
    },
    {
      "anonymous": false,
      "inputs": [
        {
          "indexed": true,
          "internalType": "bytes8",
          "name": "version",
          "type": "bytes8"
        },
        {
          "indexed": true,
          "internalType": "address",
          "name": "code",
          "type": "address"
        },
        {
          "indexed": true,
          "internalType": "address",
          "name": "oracle",
          "type": "address"
        }
      ],
      "name": "VersionAdded",
      "type": "event"
    },
    {
      "anonymous": false,
      "inputs": [
        {
          "indexed": true,
          "internalType": "bytes8",
          "name": "version",
          "type": "bytes8"
        },
        {
          "indexed": true,
          "internalType": "address",
          "name": "code",
          "type": "address"
        },
        {
          "indexed": true,
          "internalType": "address",
          "name": "oracle",
          "type": "address"
        }
      ],
      "name": "VersionDeployed",
      "type": "event"
    },
    {
      "anonymous": false,
      "inputs": [
        {
          "indexed": true,
          "internalType": "address",
          "name": "wallet",
          "type": "address"
        },
        {
          "indexed": true,
          "internalType": "address",
          "name": "backup",
          "type": "address"
        }
      ],
      "name": "WalletBackupRemoved",
      "type": "event"
    },
    {
      "anonymous": false,
      "inputs": [
        {
          "indexed": true,
          "internalType": "address",
          "name": "wallet",
          "type": "address"
        },
        {
          "indexed": true,
          "internalType": "address",
          "name": "owner",
          "type": "address"
        },
        {
          "indexed": true,
          "internalType": "address",
          "name": "backup",
          "type": "address"
        }
      ],
      "name": "WalletBakcupCreated",
      "type": "event"
    },
    {
      "anonymous": false,
      "inputs": [
        {
          "indexed": true,
          "internalType": "address",
          "name": "wallet",
          "type": "address"
        },
        {
          "indexed": true,
          "internalType": "bytes8",
          "name": "version",
          "type": "bytes8"
        },
        {
          "indexed": true,
          "internalType": "address",
          "name": "owner",
          "type": "address"
        }
      ],
      "name": "WalletConfigurationRestored",
      "type": "event"
    },
    {
      "anonymous": false,
      "inputs": [
        {
          "indexed": true,
          "internalType": "address",
          "name": "wallet",
          "type": "address"
        },
        {
          "indexed": true,
          "internalType": "bytes8",
          "name": "version",
          "type": "bytes8"
        },
        {
          "indexed": true,
          "internalType": "address",
          "name": "owner",
          "type": "address"
        }
      ],
      "name": "WalletCreated",
      "type": "event"
    },
    {
      "anonymous": false,
      "inputs": [
        {
          "indexed": true,
          "internalType": "address",
          "name": "wallet",
          "type": "address"
        },
        {
          "indexed": true,
          "internalType": "address",
          "name": "owner",
          "type": "address"
        }
      ],
      "name": "WalletOwnershipRestored",
      "type": "event"
    },
    {
      "anonymous": false,
      "inputs": [
        {
          "indexed": true,
          "internalType": "address",
          "name": "wallet",
          "type": "address"
        },
        {
          "indexed": true,
          "internalType": "address",
          "name": "owner",
          "type": "address"
        },
        {
          "indexed": true,
          "internalType": "address",
          "name": "newOwner",
          "type": "address"
        }
      ],
      "name": "WalletOwnershipTransfered",
      "type": "event"
    },
    {
      "anonymous": false,
      "inputs": [
        {
          "indexed": true,
          "internalType": "address",
          "name": "wallet",
          "type": "address"
        },
        {
          "indexed": true,
          "internalType": "bytes8",
          "name": "version",
          "type": "bytes8"
        }
      ],
      "name": "WalletUpgradeDismissed",
      "type": "event"
    },
    {
      "anonymous": false,
      "inputs": [
        {
          "indexed": true,
          "internalType": "address",
          "name": "wallet",
          "type": "address"
        },
        {
          "indexed": true,
          "internalType": "bytes8",
          "name": "version",
          "type": "bytes8"
        }
      ],
      "name": "WalletUpgradeRequested",
      "type": "event"
    },
    {
      "anonymous": false,
      "inputs": [
        {
          "indexed": true,
          "internalType": "address",
          "name": "wallet",
          "type": "address"
        },
        {
          "indexed": true,
          "internalType": "bytes8",
          "name": "fromVersion",
          "type": "bytes8"
        },
        {
          "indexed": true,
          "internalType": "bytes8",
          "name": "toVersion",
          "type": "bytes8"
        }
      ],
      "name": "WalletUpgraded",
      "type": "event"
    },
    {
      "anonymous": false,
      "inputs": [
        {
          "indexed": true,
          "internalType": "address",
          "name": "wallet",
          "type": "address"
        },
        {
          "indexed": true,
          "internalType": "bytes8",
          "name": "version",
          "type": "bytes8"
        },
        {
          "indexed": true,
          "internalType": "address",
          "name": "owner",
          "type": "address"
        }
      ],
      "name": "WalletVersionRestored",
      "type": "event"
    },
    {
      "inputs": [],
      "name": "CHAIN_ID",
      "outputs": [
        {
          "internalType": "uint256",
          "name": "",
          "type": "uint256"
        }
      ],
      "stateMutability": "view",
      "type": "function"
    },
    {
      "inputs": [],
      "name": "CREATE_WALLET_ACTION_HASH",
      "outputs": [
        {
          "internalType": "bytes32",
          "name": "",
          "type": "bytes32"
        }
      ],
      "stateMutability": "view",
      "type": "function"
    },
    {
      "inputs": [],
      "name": "CREATE_WALLET_TYPEHASH",
      "outputs": [
        {
          "internalType": "bytes32",
          "name": "",
          "type": "bytes32"
        }
      ],
      "stateMutability": "view",
      "type": "function"
    },
    {
      "inputs": [],
      "name": "DOMAIN_SEPARATOR",
      "outputs": [
        {
          "internalType": "bytes32",
          "name": "",
          "type": "bytes32"
        }
      ],
      "stateMutability": "view",
      "type": "function"
    },
    {
      "inputs": [],
      "name": "LATEST",
      "outputs": [
        {
          "internalType": "bytes8",
          "name": "",
          "type": "bytes8"
        }
      ],
      "stateMutability": "view",
      "type": "function"
    },
    {
      "inputs": [],
      "name": "owner",
      "outputs": [
        {
          "internalType": "address",
          "name": "",
          "type": "address"
        }
      ],
      "stateMutability": "view",
      "type": "function"
    },
    {
      "inputs": [],
      "name": "renounceOwnership",
      "outputs": [],
      "stateMutability": "nonpayable",
      "type": "function"
    },
    {
      "inputs": [],
      "name": "s_frozen",
      "outputs": [
        {
          "internalType": "bool",
          "name": "",
          "type": "bool"
        }
      ],
      "stateMutability": "view",
      "type": "function"
    },
    {
      "inputs": [],
      "name": "s_frozen_",
      "outputs": [
        {
          "internalType": "bool",
          "name": "",
          "type": "bool"
        }
      ],
      "stateMutability": "view",
      "type": "function"
    },
    {
      "inputs": [
        {
          "internalType": "address",
          "name": "newOwner",
          "type": "address"
        }
      ],
      "name": "transferOwnership",
      "outputs": [],
      "stateMutability": "nonpayable",
      "type": "function"
    },
    {
      "inputs": [],
      "name": "isOwner",
      "outputs": [
        {
          "internalType": "bool",
          "name": "",
          "type": "bool"
        }
      ],
      "stateMutability": "view",
      "type": "function"
    },
    {
      "inputs": [
        {
          "internalType": "address",
          "name": "newOwner",
          "type": "address"
        }
      ],
      "name": "transferWalletOwnership",
      "outputs": [],
      "stateMutability": "nonpayable",
      "type": "function"
    },
    {
      "inputs": [
        {
          "internalType": "address",
          "name": "backup",
          "type": "address"
        }
      ],
      "name": "addWalletBackup",
      "outputs": [],
      "stateMutability": "nonpayable",
      "type": "function"
    },
    {
      "inputs": [
        {
          "internalType": "address",
          "name": "backup",
          "type": "address"
        }
      ],
      "name": "removeWalletBackup",
      "outputs": [],
      "stateMutability": "nonpayable",
      "type": "function"
    },
    {
      "inputs": [
        {
          "internalType": "bytes8",
          "name": "version",
          "type": "bytes8"
        }
      ],
      "name": "upgradeWalletRequest",
      "outputs": [],
      "stateMutability": "nonpayable",
      "type": "function"
    },
    {
      "inputs": [],
      "name": "upgradeWalletDismiss",
      "outputs": [],
      "stateMutability": "nonpayable",
      "type": "function"
    },
    {
      "inputs": [],
      "name": "upgradeWalletExecute",
      "outputs": [],
      "stateMutability": "nonpayable",
      "type": "function"
    },
    {
      "inputs": [
        {
          "internalType": "address",
          "name": "target",
          "type": "address"
        },
        {
          "internalType": "address",
          "name": "targetOracle",
          "type": "address"
        }
      ],
      "name": "addVersion",
      "outputs": [],
      "stateMutability": "nonpayable",
      "type": "function"
    },
    {
      "inputs": [
        {
          "internalType": "bytes8",
          "name": "version",
          "type": "bytes8"
        }
      ],
      "name": "deployVersion",
      "outputs": [],
      "stateMutability": "nonpayable",
      "type": "function"
    },
    {
      "inputs": [],
      "name": "restoreWalletConfiguration",
      "outputs": [],
      "stateMutability": "nonpayable",
      "type": "function"
    },
    {
      "inputs": [],
      "name": "restoreWalletOwnership",
      "outputs": [],
      "stateMutability": "nonpayable",
      "type": "function"
    },
    {
      "inputs": [],
      "name": "restoreWalletVersion",
      "outputs": [],
      "stateMutability": "nonpayable",
      "type": "function"
    },
    {
      "inputs": [],
      "name": "getLatestVersion",
      "outputs": [
        {
          "internalType": "address",
          "name": "",
          "type": "address"
        }
      ],
      "stateMutability": "view",
      "type": "function"
    },
    {
      "inputs": [
        {
          "internalType": "address",
          "name": "account",
          "type": "address"
        }
      ],
      "name": "getWallet",
      "outputs": [
        {
          "internalType": "address",
          "name": "",
          "type": "address"
        }
      ],
      "stateMutability": "view",
      "type": "function"
    },
    {
      "inputs": [
        {
          "internalType": "address",
          "name": "owner",
          "type": "address"
        }
      ],
      "name": "getWalletOfOwner",
      "outputs": [
        {
          "internalType": "address",
          "name": "",
          "type": "address"
        }
      ],
      "stateMutability": "view",
      "type": "function"
    },
    {
      "inputs": [
        {
          "internalType": "address",
          "name": "account",
          "type": "address"
        }
      ],
      "name": "getWalletDebt",
      "outputs": [
        {
          "internalType": "uint88",
          "name": "",
          "type": "uint88"
        }
      ],
      "stateMutability": "view",
      "type": "function"
    },
    {
      "inputs": [
        {
          "internalType": "bool",
          "name": "autoMode",
          "type": "bool"
        }
      ],
      "name": "createWallet",
      "outputs": [
        {
          "internalType": "address",
          "name": "",
          "type": "address"
        }
      ],
      "stateMutability": "nonpayable",
      "type": "function"
    },
    {
      "inputs": [
        {
          "internalType": "bool",
          "name": "autoMode",
          "type": "bool"
        },
        {
          "internalType": "bytes32",
          "name": "infoHash",
          "type": "bytes32"
        },
        {
          "internalType": "address",
          "name": "owner",
          "type": "address"
        },
        {
          "internalType": "uint8",
          "name": "v",
          "type": "uint8"
        },
        {
          "internalType": "bytes32",
          "name": "r",
          "type": "bytes32"
        },
        {
          "internalType": "bytes32",
          "name": "s",
          "type": "bytes32"
        }
      ],
      "name": "createFreeWallet",
      "outputs": [
        {
          "internalType": "address",
          "name": "",
          "type": "address"
        }
      ],
      "stateMutability": "nonpayable",
      "type": "function"
    },
    {
      "inputs": [
        {
          "internalType": "bool",
          "name": "autoMode",
          "type": "bool"
        },
        {
          "internalType": "bytes32",
          "name": "infoHash",
          "type": "bytes32"
        }
      ],
      "name": "createWalletMessage",
      "outputs": [
        {
          "internalType": "bytes",
          "name": "",
          "type": "bytes"
        }
      ],
      "stateMutability": "pure",
      "type": "function"
    },
    {
      "inputs": [],
      "name": "oracle",
      "outputs": [
        {
          "internalType": "address",
          "name": "oracleAddress",
          "type": "address"
        }
      ],
      "stateMutability": "view",
      "type": "function"
    }
  ],
  "bytecode": "0x60806040523480156200001157600080fd5b506200001d33620000f7565b6040516200002b9062000147565b604051809103906000f08015801562000048573d6000803e3d6000fd5b50600280546001600160a01b0319166001600160a01b0392909216919091179055604051620000779062000155565b604051809103906000f08015801562000094573d6000803e3d6000fd5b50600380546001600160a01b03929092166001600160a01b03199283168117909155651b185d195cdd60d21b60005260076020527f2a3f3ea100e75b92349ded449e14dab25a5afa6b5c3043834a80569d459659b3805490921617905562000163565b600080546001600160a01b038381166001600160a01b0319831681178455604051919092169283917f8be0079c531659141344cd1fd0a4f28419497f9722a3daafe3b4186f6b6457e09190a35050565b610d1480620029f883390190565b6103b1806200370c83390190565b61288580620001736000396000f3fe608060405234801561001057600080fd5b50600436106101da5760003560e01c8063842bb73211610104578063a196de83116100a2578063cf2f774111610071578063cf2f774114610444578063d94f5f7c14610457578063ee85896814610477578063f2fde38b1461047f57600080fd5b8063a196de8314610409578063a7ecbd8d1461041c578063bf3b110114610424578063c411ce9a1461043757600080fd5b80638da5cb5b116100de5780638da5cb5b146103ca5780638f32d59b146103db57806397e61ee4146103e35780639fcaa4c6146103f657600080fd5b8063842bb7321461039057806385e1f4d0146103985780638c576fc3146103a157600080fd5b80633644e5151161017c5780636be44ae71161014b5780636be44ae714610303578063715018a614610327578063785c68411461032f5780637dc0d1d01461038857600080fd5b80633644e515146102ad5780634b613c20146102b65780634c30d6c9146102c9578063627fdeab146102f057600080fd5b80631a05b142116101b85780631a05b1421461024a5780631a34bf7b146102525780632bc68db714610265578063311ed9211461027857600080fd5b806304d0a647146101df578063065c5000146102285780630e6d1de914610232575b600080fd5b61020b6101ed3660046124de565b6001600160a01b039081166000908152600460205260409020541690565b6040516001600160a01b0390911681526020015b60405180910390f35b610230610492565b005b600854600160401b90046001600160a01b031661020b565b610230610559565b610230610260366004612518565b6106b7565b61020b610273366004612543565b6107e8565b61029f7f7dd6c9a7b09565fb2ed9455cf39e30eff779a3d6e355922b0e629339a59177f781565b60405190815260200161021f565b61029f600d5481565b6102306102c4366004612518565b6107fa565b61029f7fffa9b46ea3c236285ae6aa67cffdf81ff9b5be7b0769e5f82f07d91830e0020f81565b61020b6102fe3660046124de565b61096b565b60135461031790600160a01b900460ff1681565b604051901515815260200161021f565b6102306109ac565b61036c61033d3660046124de565b6001600160a01b0316600090815260046020526040902054600160a81b90046affffffffffffffffffffff1690565b6040516affffffffffffffffffffff909116815260200161021f565b61020b6109e2565b610230610a3e565b61029f600e5481565b6103b1651b185d195cdd60d21b81565b6040516001600160c01b0319909116815260200161021f565b6000546001600160a01b031661020b565b610317610ae8565b6102306103f1366004612560565b610b0c565b61020b610404366004612599565b610ed2565b6102306104173660046124de565b610f70565b6102306111d4565b6102306104323660046124de565b611345565b600f546103179060ff1681565b6102306104523660046124de565b6115d1565b61046a610465366004612604565b61170d565b60405161021f9190612630565b610230611782565b61023061048d3660046124de565b6119da565b600061049c611a75565b80546001600160a01b031660009081526006602052604090206001810154919250906105045760405162461bcd60e51b81526020600482015260126024820152711c995c5d595cdd081b9bdd08195e1cda5cdd60721b60448201526064015b60405180910390fd5b6000600182018190558154835460405160c09290921b6001600160c01b031916926001600160a01b03909116917f961290359efe263198ef169c00e476f9ad4e7a4c16df78e709c88f1f84747ddf9190a35050565b6000610563611a75565b80546001600160a01b031660009081526005602052604090205490915060c01b6524e7a2e6a32360d21b6001600160c01b03198216016105a5575060085460c01b5b6001600160c01b031981166000908152600760205260409020546001600160a01b0316806106095760405162461bcd60e51b81526020600482015260116024820152701d995c9cda5bdb881b9bdd08195e1a5cdd607a1b60448201526064016104fb565b825460405163784d200b60e11b81523360048201526001600160a01b0383811660248301529091169063f09a401690604401600060405180830381600087803b15801561065557600080fd5b505af1158015610669573d6000803e3d6000fd5b505084546040513393506001600160c01b0319861692506001600160a01b03909116907f9dff4715dcc255fd0abdc515933401366bac62424c60e57d607dfe9003f2dc1790600090a4505050565b60006106c1611a75565b90506001600160c01b03198216651b185d195cdd60d21b1461073e576001600160c01b031982166000908152600760205260409020546001600160a01b031661073e5760405162461bcd60e51b815260206004820152600f60248201526e6e6f2076657273696f6e20636f646560881b60448201526064016104fb565b604080518082019091526001600160c01b03198316815260208101610766426202a30061269b565b905281546001600160a01b0390811660009081526006602090815260408083208551815467ffffffffffffffff191660c09190911c1781559490910151600190940193909355835492516001600160c01b0319861693909216917fd8b538975844017c9b6a22b04268c624c8a43b3e15f89bd7e22afb30238732ea9190a35050565b60006107f48233611b17565b92915050565b6000546001600160a01b031633146108245760405162461bcd60e51b81526004016104fb906126b3565b6001600160c01b031981166000908152600760205260409020546001600160a01b0316806108885760405162461bcd60e51b81526020600482015260116024820152701d995c9cda5bdb881b9bdd08195e1a5cdd607a1b60448201526064016104fb565b6001600160c01b031982166000908152600a60205260409020546001600160a01b0316806108eb5760405162461bcd60e51b815260206004820152601060248201526f1bdc9858db19481b9bdd08195e1a5cdd60821b60448201526064016104fb565b600880546001600160a01b03808516600160401b81026001600160e01b031990931660c088901c1792909217909255600980549284166001600160a01b0319909316831790556040516001600160c01b03198616907fb4d04ce57b22f1de0bfbaebe42d34d0616a77b6de95fde396bbd054851d22f5890600090a4505050565b6001600160a01b03811660009081526004602052604081208054600160a01b900460ff1661099c5750600092915050565b546001600160a01b031692915050565b6000546001600160a01b031633146109d65760405162461bcd60e51b81526004016104fb906126b3565b6109e06000611fce565b565b3360009081526005602052604081205460c01b6524e7a2e6a32360d21b6001600160c01b0319821601610a17575060085460c01b5b6001600160c01b0319166000908152600a60205260409020546001600160a01b0316919050565b6000610a48611a75565b805460405163784d200b60e11b8152336004820152600060248201529192506001600160a01b03169063f09a401690604401600060405180830381600087803b158015610a9457600080fd5b505af1158015610aa8573d6000803e3d6000fd5b505082546040513393506001600160a01b0390911691507f5818d755b157239746017f59fc87c7100652290409a15a7d4fba19ff98efcb5f90600090a350565b600033610afd6000546001600160a01b031690565b6001600160a01b031614905090565b6000546001600160a01b03163314610b365760405162461bcd60e51b81526004016104fb906126b3565b6001600160a01b038216610b795760405162461bcd60e51b815260206004820152600a6024820152693737903b32b939b4b7b760b11b60448201526064016104fb565b6001600160a01b038116610bc35760405162461bcd60e51b815260206004820152601160248201527037379037b930b1b632903b32b939b4b7b760791b60448201526064016104fb565b60405163cbca47db60e01b81526001600160a01b03838116600483015282169063cbca47db90602401602060405180830381865afa158015610c09573d6000803e3d6000fd5b505050506040513d601f19601f82011682018060405250810190610c2d91906126e8565b610c725760405162461bcd60e51b81526020600482015260166024820152751bdc9858db19481b9bdd081a5b9a5d1a585b1a5e995960521b60448201526064016104fb565b6000826001600160a01b03166354fd4d506040518163ffffffff1660e01b8152600401602060405180830381865afa158015610cb2573d6000803e3d6000fd5b505050506040513d601f19601f82011682018060405250810190610cd69190612705565b9050806001600160c01b031916826001600160a01b03166354fd4d506040518163ffffffff1660e01b8152600401602060405180830381865afa158015610d21573d6000803e3d6000fd5b505050506040513d601f19601f82011682018060405250810190610d459190612705565b6001600160c01b03191614610d905760405162461bcd60e51b81526020600482015260116024820152700eccae4e6d2dedc40dad2e6e8dac2e8c6d607b1b60448201526064016104fb565b6001600160c01b031981166000908152600760205260409020546001600160a01b03168015610df25760405162461bcd60e51b815260206004820152600e60248201526d76657273696f6e2065786973747360901b60448201526064016104fb565b6001600160c01b031982166000908152600a60205260409020546001600160a01b031615610e525760405162461bcd60e51b815260206004820152600d60248201526c6f7261636c652065786973747360981b60448201526064016104fb565b6001600160c01b03198216600081815260076020908152604080832080546001600160a01b03808b166001600160a01b031992831617909255600a9093528184208054898316941684179055905191939085169290917ff3c8e7c782d00f601a9d70107849e3f4894c000271e60377966bcfa99ca3ead29190a450505050565b600080610ef0610ee2898961170d565b80519060200120600161201e565b90506000610f00828787876120c6565b9050866001600160a01b0316816001600160a01b031614610f595760405162461bcd60e51b815260206004820152601360248201527239b4b3b732b91034b9903737ba1037bbb732b960691b60448201526064016104fb565b610f638988611b17565b9998505050505050505050565b6001600160a01b038116610fc65760405162461bcd60e51b815260206004820152601c60248201527f696e707574206261636b75702077616c6c656420697320656d7074790000000060448201526064016104fb565b6001600160a01b0380821660009081526004602052604090208054909116156110285760405162461bcd60e51b8152602060048201526014602482015273189858dadd5c081a185cc81b9bc81dd85b1b195d60621b60448201526064016104fb565b8054600160a01b900460ff161561107a5760405162461bcd60e51b81526020600482015260166024820152753130b1b5bab81034b9903bb0b63632ba1037bbb732b960511b60448201526064016104fb565b6000336001600160a01b0316638da5cb5b6040518163ffffffff1660e01b8152600401602060405180830381865afa1580156110ba573d6000803e3d6000fd5b505050506040513d601f19601f820116820180604052508101906110de9190612722565b6001600160a01b0381811660009081526004602052604090208054929350911633146111395760405162461bcd60e51b815260206004820152600a6024820152691b9bdd081dd85b1b195d60b21b60448201526064016104fb565b8054600160a01b900460ff166111835760405162461bcd60e51b815260206004820152600f60248201526e3737903bb0b63632ba1037bbb732b960891b60448201526064016104fb565b82546001600160a01b0319163390811784556040516001600160a01b0386811692908516917f3ad2922e4515f4b3c6ab65f6821393167f3c684aa85b6decef33c3585f72127f90600090a450505050565b60006111de611a75565b80546001600160a01b031660009081526005602052604081205491925060c09190911b906001600160c01b03198216651b185d195cdd60d21b14611244576001600160c01b031982166000908152600760205260409020546001600160a01b0316611251565b6003546001600160a01b03165b90506001600160a01b0381166112965760405162461bcd60e51b815260206004820152600a6024820152693737903b32b939b4b7b760b11b60448201526064016104fb565b825460405163784d200b60e11b8152600060048201526001600160a01b0383811660248301529091169063f09a401690604401600060405180830381600087803b1580156112e357600080fd5b505af11580156112f7573d6000803e3d6000fd5b505084546040513393506001600160c01b0319861692506001600160a01b03909116907f674e126c2ea08c63dbe99eca56b1e9bd3b8d412a467e57060a5953f6e3c2060090600090a4505050565b6000336001600160a01b0316638da5cb5b6040518163ffffffff1660e01b8152600401602060405180830381865afa158015611385573d6000803e3d6000fd5b505050506040513d601f19601f820116820180604052508101906113a99190612722565b6001600160a01b0381811660009081526004602052604090208054929350911633146114095760405162461bcd60e51b815260206004820152600f60248201526e199c9bdb4e881b9bc81dd85b1b195d608a1b60448201526064016104fb565b8054600160a01b900460ff1661145a5760405162461bcd60e51b8152602060048201526016602482015275333937b69d103737ba103bb0b63632ba1037bbb732b960511b60448201526064016104fb565b6001600160a01b038381166000908152600460205260409020805490911633146114c65760405162461bcd60e51b815260206004820152601b60248201527f746f3a206e6f742073616d652077616c6c65742061732066726f6d000000000060448201526064016104fb565b8054600160a01b900460ff16156115125760405162461bcd60e51b815260206004820152601060248201526f3a379d103bb0b63632ba1037bbb732b960811b60448201526064016104fb565b805460ff60a01b1916600160a01b17815581546001600160a81b031916825560405163784d200b60e11b81526001600160a01b038516600482015260006024820152339063f09a401690604401600060405180830381600087803b15801561157957600080fd5b505af115801561158d573d6000803e3d6000fd5b50506040516001600160a01b0380881693508616915033907fc5853bc5765dbba0cd599900c9ce5a619c8a552624bef9e0ac3783ddd2cfea3f90600090a450505050565b6001600160a01b0381166116135760405162461bcd60e51b815260206004820152600960248201526806e6f206261636b75760bc1b60448201526064016104fb565b6001600160a01b0380821660009081526004602052604090208054909116331461166c5760405162461bcd60e51b815260206004820152600a6024820152691b9bdd081dd85b1b195d60b21b60448201526064016104fb565b8054600160a01b900460ff16156116c55760405162461bcd60e51b815260206004820152601760248201527f77616c6c6574206261636b7570206e6f7420657869737400000000000000000060448201526064016104fb565b80546001600160a01b03191681556040516001600160a01b0383169033907fa83abfa8492f1b783786f803e26a0a9884011a0a4e8bf78310b44ad7937589f590600090a35050565b604080517fffa9b46ea3c236285ae6aa67cffdf81ff9b5be7b0769e5f82f07d91830e0020f60208201527f7dd6c9a7b09565fb2ed9455cf39e30eff779a3d6e355922b0e629339a59177f78183015292151560608401526080808401929092528051808403909201825260a090920190915290565b600061178c611a75565b80546001600160a01b031660009081526006602052604090206001810154919250906117ef5760405162461bcd60e51b81526020600482015260126024820152711c995c5d595cdd081b9bdd08195e1cda5cdd60721b60448201526064016104fb565b428160010154111561182f5760405162461bcd60e51b8152602060048201526009602482015268746f6f206561726c7960b81b60448201526064016104fb565b81546001600160a01b031660009081526005602052604081208054835467ffffffffffffffff811667ffffffffffffffff1983161790925560c090811b9291901b906001600160c01b03198216651b185d195cdd60d21b146118b3576001600160c01b031982166000908152600760205260409020546001600160a01b03166118c0565b6003546001600160a01b03165b855460405163784d200b60e11b81523360048201526001600160a01b03808416602483015292935091169063f09a401690604401600060405180830381600087803b15801561190e57600080fd5b505af1158015611922573d6000803e3d6000fd5b5050865460405163028b46fb60e41b81526001600160c01b0319871660048201526001600160a01b0390911692506328b46fb09150602401600060405180830381600087803b15801561197457600080fd5b505af1158015611988573d6000803e3d6000fd5b505086546040516001600160c01b03198087169450871692506001600160a01b03909116907fa39b1e1213c3388dee3e06115dc4304a15bd88242b700514879f33882917c36790600090a45050505050565b6000546001600160a01b03163314611a045760405162461bcd60e51b81526004016104fb906126b3565b6001600160a01b038116611a695760405162461bcd60e51b815260206004820152602660248201527f4f776e61626c653a206e6577206f776e657220697320746865207a65726f206160448201526564647265737360d01b60648201526084016104fb565b611a7281611fce565b50565b33600090815260046020526040812080546001600160a01b0316611ac75760405162461bcd60e51b81526020600482015260096024820152681b9bc81dd85b1b195d60ba1b60448201526064016104fb565b8054600160a01b900460ff16611b125760405162461bcd60e51b815260206004820152601060248201526f3737ba103bb0b63632ba1037bbb732b960811b60448201526064016104fb565b919050565b6002546000906001600160a01b0316611b5d5760405162461bcd60e51b81526020600482015260086024820152676e6f2070726f787960c01b60448201526064016104fb565b600854600160401b90046001600160a01b0316611bae5760405162461bcd60e51b815260206004820152600f60248201526e373790383937b2103b32b939b4b7b760891b60448201526064016104fb565b6001600160a01b0380831660009081526004602052604090208054909116611fbd57600254611be79030906001600160a01b0316612113565b81546001600160a01b0319166001600160a01b03919091169081178255611c455760405162461bcd60e51b81526020600482015260126024820152711dd85b1b195d081b9bdd0818dc99585d195960721b60448201526064016104fb565b805460ff60a01b1916600160a01b1781558315611e6c576003546001600160a01b0316611ca65760405162461bcd60e51b815260206004820152600f60248201526e37379030baba37903b32b939b4b7b760891b60448201526064016104fb565b600354651b185d195cdd60d21b60005260076020527f2a3f3ea100e75b92349ded449e14dab25a5afa6b5c3043834a80569d459659b3546001600160a01b03908116911614611d305760405162461bcd60e51b815260206004820152601660248201527534b731b7b93932b1ba1030baba37903b32b939b4b7b760511b60448201526064016104fb565b80546001600160a01b0390811660009081526005602052604090819020805467ffffffffffffffff1916676c617465737400001790558254600354915163784d200b60e11b8152868416600482015291831660248301529091169063f09a401690604401600060405180830381600087803b158015611dae57600080fd5b505af1158015611dc2573d6000803e3d6000fd5b5050825460405163028b46fb60e41b8152600060048201526001600160a01b0390911692506328b46fb09150602401600060405180830381600087803b158015611e0b57600080fd5b505af1158015611e1f573d6000803e3d6000fd5b50508254604051339350651b185d195cdd60d21b92506001600160a01b03909116907f689c6b1155ee0314d789d2c8968b47cb04b9c8592446c127023fc6399b17310c90600090a4611fbd565b6008805482546001600160a01b0390811660009081526005602052604090819020805467ffffffffffffffff191667ffffffffffffffff9094169390931790925583549254915163784d200b60e11b81528682166004820152600160401b90920481166024830152919091169063f09a401690604401600060405180830381600087803b158015611efc57600080fd5b505af1158015611f10573d6000803e3d6000fd5b5050825460405163028b46fb60e41b8152600060048201526001600160a01b0390911692506328b46fb09150602401600060405180830381600087803b158015611f5957600080fd5b505af1158015611f6d573d6000803e3d6000fd5b5050600854835460405133945060c09290921b6001600160c01b03191692506001600160a01b0316907f689c6b1155ee0314d789d2c8968b47cb04b9c8592446c127023fc6399b17310c90600090a45b546001600160a01b03169392505050565b600080546001600160a01b038381166001600160a01b0319831681178455604051919092169283917f8be0079c531659141344cd1fd0a4f28419497f9722a3daafe3b4186f6b6457e09190a35050565b6000811561206b57600d5483604051602001808061190160f01b815250600201838152602001828152602001925050506040516020818303038152906040528051906020012090506107f4565b5050600d54604080517f19457468657265756d205369676e6564204d6573736167653a0a363400000000602080830191909152603c820193909352605c8082019490945281518082039094018452607c019052815191012090565b600060ff8416156120e4576120dd858585856121fe565b905061210b565b6121086120f660ff84901c601b61273f565b8690856001600160ff1b0386166121fe565b90505b949350505050565b6000806040518060e0016040528060a681526020016127aa60a691399050606084811b9084901b60005b60148110156121ea5782816014811061215857612158612764565b1a60f81b8461216883603d61269b565b8151811061217857612178612764565b60200101906001600160f81b031916908160001a9053508181601481106121a1576121a1612764565b1a60f81b846121b183606561269b565b815181106121c1576121c1612764565b60200101906001600160f81b031916908160001a905350806121e28161277a565b91505061213d565b508251602084016000f09695505050505050565b600080600061220f87878787612226565b9150915061221c81612313565b5095945050505050565b6000807f7fffffffffffffffffffffffffffffff5d576e7357a4501ddfe92f46681b20a083111561225d575060009050600361230a565b8460ff16601b1415801561227557508460ff16601c14155b15612286575060009050600461230a565b6040805160008082526020820180845289905260ff881692820192909252606081018690526080810185905260019060a0016020604051602081039080840390855afa1580156122da573d6000803e3d6000fd5b5050604051601f1901519150506001600160a01b0381166123035760006001925092505061230a565b9150600090505b94509492505050565b600081600481111561232757612327612793565b0361232f5750565b600181600481111561234357612343612793565b036123905760405162461bcd60e51b815260206004820152601860248201527f45434453413a20696e76616c6964207369676e6174757265000000000000000060448201526064016104fb565b60028160048111156123a4576123a4612793565b036123f15760405162461bcd60e51b815260206004820152601f60248201527f45434453413a20696e76616c6964207369676e6174757265206c656e6774680060448201526064016104fb565b600381600481111561240557612405612793565b0361245d5760405162461bcd60e51b815260206004820152602260248201527f45434453413a20696e76616c6964207369676e6174757265202773272076616c604482015261756560f01b60648201526084016104fb565b600481600481111561247157612471612793565b03611a725760405162461bcd60e51b815260206004820152602260248201527f45434453413a20696e76616c6964207369676e6174757265202776272076616c604482015261756560f01b60648201526084016104fb565b6001600160a01b0381168114611a7257600080fd5b6000602082840312156124f057600080fd5b81356124fb816124c9565b9392505050565b6001600160c01b031981168114611a7257600080fd5b60006020828403121561252a57600080fd5b81356124fb81612502565b8015158114611a7257600080fd5b60006020828403121561255557600080fd5b81356124fb81612535565b6000806040838503121561257357600080fd5b823561257e816124c9565b9150602083013561258e816124c9565b809150509250929050565b60008060008060008060c087890312156125b257600080fd5b86356125bd81612535565b95506020870135945060408701356125d4816124c9565b9350606087013560ff811681146125ea57600080fd5b9598949750929560808101359460a0909101359350915050565b6000806040838503121561261757600080fd5b823561262281612535565b946020939093013593505050565b600060208083528351808285015260005b8181101561265d57858101830151858201604001528201612641565b8181111561266f576000604083870101525b50601f01601f1916929092016040019392505050565b634e487b7160e01b600052601160045260246000fd5b600082198211156126ae576126ae612685565b500190565b6020808252818101527f4f776e61626c653a2063616c6c6572206973206e6f7420746865206f776e6572604082015260600190565b6000602082840312156126fa57600080fd5b81516124fb81612535565b60006020828403121561271757600080fd5b81516124fb81612502565b60006020828403121561273457600080fd5b81516124fb816124c9565b600060ff821660ff84168060ff0382111561275c5761275c612685565b019392505050565b634e487b7160e01b600052603260045260246000fd5b60006001820161278c5761278c612685565b5060010190565b634e487b7160e01b600052602160045260246000fdfe60998061000d6000396000f30036601657341560145734602052336001602080a25b005b6000805260046000601c376302d05d3f6000511415604b5773dadadadadadadadadadadadadadadadadadadada602052602080f35b366000803760008036600073bebebebebebebebebebebebebebebebebebebebe5af415608f57341560855734602052600051336002602080a35b3d6000803e3d6000f35b3d6000803e3d6000fda264697066735822122004e7fb0153198391160ffa2a7f56b0d44f8c927a0322ca2418dc47f8c8223dbe64736f6c634300080d0033608060405234801561001057600080fd5b50600080546001600160a01b03191633179055610ce2806100326000396000f3fe60806040526004361061008a5760003560e01c80638da5cb5b116100595780638da5cb5b1461028e578063d4b83992146102ac578063d5995c4a146102ca578063e3de589714610313578063f09a40161461035c576100dc565b806302d05d3f1461010257806359c091a61461012e57806363a3660c146101bd5780638a1f6075146101fc576100dc565b366100dc576040805162461bcd60e51b815260206004820181905260248201527f73686f756c64206e6f7420616363657074206574686572206469726563746c79604482015290519081900360640190fd5b36600080376000803660006001545af43d6000803e80156100fc573d6000f35b503d6000fd5b34801561010e57600080fd5b5060005b604080516001600160a01b039092168252519081900360200190f35b34801561013a57600080fd5b506101bb6004803603606081101561015157600080fd5b6001600160a01b03823516919081019060408101602082013564010000000081111561017c57600080fd5b82018360208201111561018e57600080fd5b803590602001918460018302840111640100000000831117156101b057600080fd5b919350915035610397565b005b3480156101c957600080fd5b506101bb600480360360608110156101e057600080fd5b506001600160a01b03813516906020810135906040013561058e565b34801561020857600080fd5b506101bb6004803603608081101561021f57600080fd5b6001600160a01b038235169160208101359181019060608101604082013564010000000081111561024f57600080fd5b82018360208201111561026157600080fd5b8035906020019184600183028401116401000000008311171561028357600080fd5b9193509150356106ef565b34801561029a57600080fd5b506000546001600160a01b0316610112565b3480156102b857600080fd5b506001546001600160a01b0316610112565b3480156102d657600080fd5b506101bb600480360360808110156102ed57600080fd5b506001600160a01b03813581169160208101359091169060408101359060600135610866565b34801561031f57600080fd5b5061034a6004803603602081101561033657600080fd5b503560009081526002602052604090205490565b60408051918252519081900360200190f35b34801561036857600080fd5b506101bb6004803603604081101561037f57600080fd5b506001600160a01b0381358116916020013516610a39565b306001600160a01b03166302d05d3f6040518163ffffffff1660e01b8152600401602060405180830381865afa1580156103d5573d6000803e3d6000fd5b505050506040513d60208110156103eb57600080fd5b50516001600160a01b03163314610437576040805162461bcd60e51b815260206004820152600b60248201526a3737ba1031b932b0ba37b960a91b604482015290519081900360640190fd5b801561048c576000818152600260205260409020541561048c576040805162461bcd60e51b815260206004820152601c6024820152600080516020610c8d833981519152604482015290519081900360640190fd5b600080856001600160a01b031685856040518083838082843760405192019450600093509091505080830381855afa9150503d80600081146104ea576040519150601f19603f3d011682016040523d82523d6000602084013e6104ef565b606091505b5091509150816105865761050281610b6b565b60405162461bcd60e51b81526004018080602001828103825283818151815260200191508051906020019080838360005b8381101561054b578181015183820152602001610533565b50505050905090810190601f1680156105785780820380516001836020036101000a031916815260200191505b509250505060405180910390fd5b505050505050565b306001600160a01b03166302d05d3f6040518163ffffffff1660e01b8152600401602060405180830381865afa1580156105cc573d6000803e3d6000fd5b505050506040513d60208110156105e257600080fd5b50516001600160a01b0316331461062e576040805162461bcd60e51b815260206004820152600b60248201526a3737ba1031b932b0ba37b960a91b604482015290519081900360640190fd5b80156106835760008181526002602052604090205415610683576040805162461bcd60e51b815260206004820152601c6024820152600080516020610c8d833981519152604482015290519081900360640190fd5b60405160009081906001600160a01b0386169085908381818185875af1925050503d80600081146106d0576040519150601f19603f3d011682016040523d82523d6000602084013e6106d5565b606091505b5091509150816106e85761050281610b6b565b5050505050565b306001600160a01b03166302d05d3f6040518163ffffffff1660e01b8152600401602060405180830381865afa15801561072d573d6000803e3d6000fd5b505050506040513d602081101561074357600080fd5b50516001600160a01b0316331461078f576040805162461bcd60e51b815260206004820152600b60248201526a3737ba1031b932b0ba37b960a91b604482015290519081900360640190fd5b80156107e457600081815260026020526040902054156107e4576040805162461bcd60e51b815260206004820152601c6024820152600080516020610c8d833981519152604482015290519081900360640190fd5b600080866001600160a01b0316868686604051808383808284376040519201945060009350909150508083038185875af1925050503d8060008114610845576040519150601f19603f3d011682016040523d82523d6000602084013e61084a565b606091505b50915091508161085d5761050281610b6b565b50505050505050565b306001600160a01b03166302d05d3f6040518163ffffffff1660e01b8152600401602060405180830381865afa1580156108a4573d6000803e3d6000fd5b505050506040513d60208110156108ba57600080fd5b50516001600160a01b03163314610906576040805162461bcd60e51b815260206004820152600b60248201526a3737ba1031b932b0ba37b960a91b604482015290519081900360640190fd5b801561095b576000818152600260205260409020541561095b576040805162461bcd60e51b815260206004820152601c6024820152600080516020610c8d833981519152604482015290519081900360640190fd5b604080516001600160a01b038581166024830152604480830186905283518084039091018152606490920183526020820180516001600160e01b031663a9059cbb60e01b178152925182516000948594938a169392918291908083835b602083106109d75780518252601f1990920191602091820191016109b8565b6001836020036101000a0380198251168184511680821785525050505050509050019150506000604051808303816000865af19150503d80600081146104ea576040519150601f19603f3d011682016040523d82523d6000602084013e6104ef565b306001600160a01b03166302d05d3f6040518163ffffffff1660e01b8152600401602060405180830381865afa158015610a77573d6000803e3d6000fd5b505050506040513d6020811015610a8d57600080fd5b50516001600160a01b03163314610ad9576040805162461bcd60e51b815260206004820152600b60248201526a3737ba1031b932b0ba37b960a91b604482015290519081900360640190fd5b6000546001600160a01b03838116911614801590610aff57506001600160a01b03821615155b15610b2057600080546001600160a01b0319166001600160a01b0384161790555b6001546001600160a01b03828116911614801590610b4657506001600160a01b03811615155b15610b6757600180546001600160a01b0319166001600160a01b0383161790555b5050565b6060604482511015610b9657604051806060016040528060258152602001610c686025913992915050565b6004820180519092602401906020811015610bb057600080fd5b8101908080516040519392919084640100000000821115610bd057600080fd5b908301906020820185811115610be557600080fd5b8251640100000000811182820188101715610bff57600080fd5b82525081516020918201929091019080838360005b83811015610c2c578181015183820152602001610c14565b50505050905090810190601f168015610c595780820380516001836020036101000a031916815260200191505b50604052505050905091905056fe57616c6c65743a205472616e73616374696f6e2072657665727465642073696c656e746c7957616c6c65743a207472616e73616374696f6e2063616e63656c656400000000a26469706673582212203d71402e95375b57b2b7f9f2b4d2d63c35c55af9b98096bab280f0bb8d12b3ea64736f6c634300080d0033608060405234801561001057600080fd5b50600080546001600160a01b0319163317905561037f806100326000396000f3fe6080604052600436106100435760003560e01c806302d05d3f146101725780638da5cb5b1461019e578063d4b83992146101bc578063f09a4016146101da57610095565b36610095576040805162461bcd60e51b815260206004820181905260248201527f73686f756c64206e6f7420616363657074206574686572206469726563746c79604482015290519081900360640190fd5b6000306001600160a01b03166302d05d3f6040518163ffffffff1660e01b8152600401602060405180830381865afa1580156100d5573d6000803e3d6000fd5b505050506040513d60208110156100eb57600080fd5b505160408051630e6d1de960e01b815290516001600160a01b0390921691630e6d1de9916004808201926020929091908290030181865afa158015610134573d6000803e3d6000fd5b505050506040513d602081101561014a57600080fd5b505190503660008037600080366000845af43d6000803e801561016c573d6000f35b503d6000fd5b34801561017e57600080fd5b5060005b604080516001600160a01b039092168252519081900360200190f35b3480156101aa57600080fd5b506000546001600160a01b0316610182565b3480156101c857600080fd5b506001546001600160a01b0316610182565b3480156101e657600080fd5b50610215600480360360408110156101fd57600080fd5b506001600160a01b0381358116916020013516610217565b005b306001600160a01b03166302d05d3f6040518163ffffffff1660e01b8152600401602060405180830381865afa158015610255573d6000803e3d6000fd5b505050506040513d602081101561026b57600080fd5b50516001600160a01b031633146102b7576040805162461bcd60e51b815260206004820152600b60248201526a3737ba1031b932b0ba37b960a91b604482015290519081900360640190fd5b6000546001600160a01b038381169116148015906102dd57506001600160a01b03821615155b156102fe57600080546001600160a01b0319166001600160a01b0384161790555b6001546001600160a01b0382811691161480159061032457506001600160a01b03811615155b1561034557600180546001600160a01b0319166001600160a01b0383161790555b505056fea26469706673582212209a11b25ea72498ef4be348e5e25600dde3bf31ef51cefff1155fe5db5338738364736f6c634300080d0033",
  "immutableReferences": {},
  "source": "// SPDX-License-Identifier: UNLICENSED\n\npragma solidity ^0.8.0;\npragma abicoder v2;\n\nimport \"./FactoryStorage.sol\";\nimport \"./interfaces/IOracle.sol\";\nimport \"./interfaces/ICreator.sol\";\n\n/** @title Factory contract \n    @author Tal Asa <tal@kirobo.io> \n    @notice Factory contract - defines functions that are used by all related contracts\n */\ncontract Factory is ICreator, FactoryStorage {\n    bytes32 public constant CREATE_WALLET_TYPEHASH = keccak256(\"CreateWallet(string action,bool auto_updates,string info)\");\n    bytes32 public constant CREATE_WALLET_ACTION_HASH = keccak256(\"create safe vault\");\n\n    event WalletCreated(\n        address indexed wallet,\n        bytes8 indexed version,\n        address indexed owner\n    );\n\n    event WalletUpgraded(address indexed wallet, bytes8 indexed fromVersion, bytes8 indexed toVersion);\n\n    event WalletUpgradeRequested(\n        address indexed wallet,\n        bytes8 indexed version\n    );\n\n    event WalletUpgradeDismissed(\n        address indexed wallet,\n        bytes8 indexed version\n    );\n\n    event WalletConfigurationRestored(\n        address indexed wallet,\n        bytes8 indexed version,\n        address indexed owner\n    );\n\n    event WalletOwnershipRestored(\n        address indexed wallet,\n        address indexed owner\n    );\n\n    event WalletVersionRestored(\n        address indexed wallet,\n        bytes8 indexed version,\n        address indexed owner\n    );\n\n    event WalletOwnershipTransfered(\n        address indexed wallet,\n        address indexed owner,\n        address indexed newOwner\n    );\n\n    event WalletBakcupCreated(\n        address indexed wallet,\n        address indexed owner,\n        address indexed backup\n    );\n\n    event WalletBackupRemoved(address indexed wallet, address indexed backup);\n\n    event VersionAdded(\n        bytes8 indexed version,\n        address indexed code,\n        address indexed oracle\n    );\n\n    event VersionDeployed(\n        bytes8 indexed version,\n        address indexed code,\n        address indexed oracle\n    );\n\n    event BatchMultiSigCallPackedFailed(\n        address indexed wallet,\n        uint256 nonce,\n        uint256 index,\n        uint256 innerIndex\n    );\n    event BatchTransfered(uint256 indexed mode, uint256 block, uint256 nonce);\n\n    constructor() FactoryStorage() {}\n\n    function isOwner() external view returns (bool) {\n        return owner() == msg.sender;\n    }\n\n    /** @notice transferWalletOwnership - the function transfers the ownership of the wallet \n                to the newOwner in the input param\n        @param newOwner (address) - address of the new owner that the ownership will move to\n     */\n    function transferWalletOwnership(address newOwner) external {\n        address curOwner = IProxy(msg.sender).owner();\n        Wallet storage sp_sw = s_accounts_wallet[curOwner];\n        require(msg.sender == sp_sw.addr, \"from: no wallet\");\n        require(sp_sw.owner, \"from: not wallet owner\");\n        Wallet storage sp_sw2 = s_accounts_wallet[newOwner];\n        require(msg.sender == sp_sw2.addr, \"to: not same wallet as from\");\n        require(!sp_sw2.owner, \"to: wallet owner\");\n        sp_sw2.owner = true;\n        sp_sw.owner = false;\n        sp_sw.addr = address(0);\n        IProxy(msg.sender).init(newOwner, address(0));\n        emit WalletOwnershipTransfered(msg.sender, curOwner, newOwner);\n    }\n\n    /** @notice addWalletBackup - adds a backup to the current wallet owner \n        @param backup (address) - the address of the backup wallet\n     */\n    function addWalletBackup(address backup) external {\n        require(backup != address(0), \"input backup walled is empty\");\n        Wallet storage sp_sw = s_accounts_wallet[backup];\n        require(sp_sw.addr == address(0), \"backup has no wallet\");\n        require(!sp_sw.owner, \"backup is wallet owner\");\n        address owner = IProxy(msg.sender).owner();\n        Wallet storage sp_sw_owner = s_accounts_wallet[owner];\n        require(msg.sender == sp_sw_owner.addr, \"not wallet\");\n        require(sp_sw_owner.owner, \"no wallet owner\");\n        sp_sw.addr = msg.sender;\n        emit WalletBakcupCreated(sp_sw.addr, owner, backup);\n    }\n\n    /** @notice removeWalletBackup - removes a specific address from being the owners backup\n        @param backup (address) - the address of the backup wallet\n     */\n    function removeWalletBackup(address backup) external {\n        require(backup != address(0), \"no backup\");\n        Wallet storage sp_sw = s_accounts_wallet[backup];\n        require(sp_sw.addr == msg.sender, \"not wallet\");\n        require(!sp_sw.owner, \"wallet backup not exist\");\n        sp_sw.addr = address(0);\n        emit WalletBackupRemoved(msg.sender, backup);\n    }\n\n    /** @notice upgradeWalletRequest - lets the owner of the wallet an option to upgrade his wallet version\n        @param version (bytes8) - version number\n    */\n    function upgradeWalletRequest(bytes8 version) external {\n        Wallet storage sp_sw = _getWalletOfSender();\n        if (version != LATEST) {\n            require(s_versions_code[version] != address(0), \"no version code\");\n        }\n        s_wallets_upgrade_requests[sp_sw.addr] = UpgradeRequest({\n            version: version,\n            validAt: block.timestamp + 48 hours\n        });\n        emit WalletUpgradeRequested(sp_sw.addr, version);\n    }\n\n    /** @notice upgradeWalletDismiss - dismiss the request for wallet upgrade\n     */\n    function upgradeWalletDismiss() external {\n        Wallet storage sp_sw = _getWalletOfSender();\n        UpgradeRequest storage sp_upgradeRequest = s_wallets_upgrade_requests[\n            sp_sw.addr\n        ];\n        require(sp_upgradeRequest.validAt > 0, \"request not exsist\");\n        sp_upgradeRequest.validAt = 0;\n        emit WalletUpgradeDismissed(sp_sw.addr, sp_upgradeRequest.version);\n    }\n\n    /** @notice upgradeWalletExecute - upgrages the wallet version\n     */\n    function upgradeWalletExecute() external {\n        Wallet storage sp_sw = _getWalletOfSender();\n        UpgradeRequest storage sp_upgradeRequest = s_wallets_upgrade_requests[\n            sp_sw.addr\n        ];\n        require(sp_upgradeRequest.validAt > 0, \"request not exsist\");\n        require(sp_upgradeRequest.validAt <= block.timestamp, \"too early\");\n        bytes8 fromVersion = s_wallets_version[sp_sw.addr];\n        bytes8 toVersion = sp_upgradeRequest.version;\n        s_wallets_version[sp_sw.addr] = toVersion;\n        address code = toVersion == LATEST ? address(s_swProxyLatest) :  s_versions_code[toVersion];\n        IProxy(sp_sw.addr).init(msg.sender, code);\n        IMigrate(sp_sw.addr).migrate(fromVersion);\n        emit WalletUpgraded(sp_sw.addr, fromVersion, toVersion);\n    }\n\n    /** @notice addVersion - add a specific version\n        @param target(address)\n        @param targetOracle(address)\n     */\n    function addVersion(address target, address targetOracle)\n        external\n        onlyOwner\n    {\n        require(target != address(0), \"no version\");\n        require(targetOracle != address(0), \"no oracle version\");\n        require(\n            IOracle(targetOracle).initialized(target),\n            \"oracle not initialized\"\n        );\n        bytes8 version = IMigrate(target).version();\n        require(\n            IOracle(targetOracle).version() == version,\n            \"version mistmatch\"\n        );\n        address code = s_versions_code[version];\n        require(code == address(0), \"version exists\");\n        require(s_versions_oracle[version] == address(0), \"oracle exists\");\n        s_versions_code[version] = target;\n        s_versions_oracle[version] = targetOracle;\n        emit VersionAdded(version, code, targetOracle);\n    }\n\n    /** @notice deployVersion - deployment of a specific version to the system \n        @param version(bytes8) - the version to deploy\n    */\n    function deployVersion(bytes8 version) external onlyOwner {\n        address code = s_versions_code[version];\n        require(code != address(0), \"version not exist\");\n        address oracleAddress = s_versions_oracle[version];\n        require(oracleAddress != address(0), \"oracle not exist\");\n        s_production_version = version;\n        s_production_version_code = code;\n        s_production_version_oracle = oracleAddress;\n        emit VersionDeployed(version, code, oracleAddress);\n    }\n\n    function restoreWalletConfiguration() external {\n        Wallet storage sp_sw = _getWalletOfSender();\n        bytes8 version = s_wallets_version[sp_sw.addr];\n        if (version == LATEST) {\n            version = s_production_version;\n        }\n        address code = s_versions_code[version];\n        require(code != address(0), \"version not exist\");\n        IProxy(sp_sw.addr).init(msg.sender, code);\n        emit WalletConfigurationRestored(sp_sw.addr, version, msg.sender);\n    }\n\n    function restoreWalletOwnership() external {\n        Wallet storage sp_sw = _getWalletOfSender();\n        IProxy(sp_sw.addr).init(msg.sender, address(0));\n        emit WalletOwnershipRestored(sp_sw.addr, msg.sender);\n    }\n\n    function restoreWalletVersion() external {\n        Wallet storage sp_sw = _getWalletOfSender();\n        bytes8 version = s_wallets_version[sp_sw.addr];\n        address code = version == LATEST ?  address(s_swProxyLatest) : s_versions_code[version];\n        require(code != address(0), \"no version\");\n        IProxy(sp_sw.addr).init(address(0), code);\n        emit WalletVersionRestored(sp_sw.addr, version, msg.sender);\n    }\n\n    function getLatestVersion() external view returns (address) {\n        return s_production_version_code;\n    }\n\n    function getWallet(address account) external view returns (address) {\n        return s_accounts_wallet[account].addr;\n    }\n\n    function getWalletOfOwner(address owner) external view returns (address) {\n      Wallet storage sp_sw = s_accounts_wallet[owner];\n      if (!sp_sw.owner) {\n        return address(0);\n      }\n      return sp_sw.addr;\n    }\n\n    function getWalletDebt(address account) external view returns (uint88) {\n        return s_accounts_wallet[account].debt;\n    }\n\n    /** @notice createWallet - create a new wallet\n        @param autoMode(bool) - if true: sets the wallet with the latest version\n                                if false: sets the wallet with the production version\n        @return address\n    */\n    function createWallet(bool autoMode) external returns (address) {\n        return _createWallet(autoMode, msg.sender);\n    }\n\n    function createFreeWallet(bool autoMode, bytes32 infoHash, address owner, uint8 v, bytes32 r, bytes32 s)\n        external \n        returns (address) \n    {\n        bytes32 messageHash = _messageToRecover(keccak256(createWalletMessage(autoMode, infoHash)), true);\n        address signer = _addressFromMessageAndSignature(messageHash, v, r, s);\n        require(signer == owner, \"signer is not owner\");\n        return _createWallet(autoMode, owner);\n    }\n\n    function createWalletMessage(bool autoMode, bytes32 infoHash) \n        public \n        pure \n        returns (bytes memory)\n    {\n        return abi.encode(\n            CREATE_WALLET_TYPEHASH,\n            CREATE_WALLET_ACTION_HASH,\n            autoMode,\n            infoHash\n        );\n    }\n\n    function oracle() external view returns (address oracleAddress) {\n        bytes8 version = s_wallets_version[msg.sender];\n        if (version == LATEST) {\n            version = s_production_version;\n        }\n        oracleAddress = s_versions_oracle[version];\n    }\n\n    function _createWallet(bool autoMode, address owner)\n        private\n        returns (address result)\n    {\n        require(address(s_swProxy) != address(0), \"no proxy\");\n        require(s_production_version_code != address(0), \"no prod version\"); //Must be here - ProxyLatest also needs it.\n\n        Wallet storage sp_sw = s_accounts_wallet[owner];\n        if (sp_sw.addr == address(0)) {\n            sp_sw.addr = _generateWallet(address(this), address(s_swProxy));\n            require(sp_sw.addr != address(0), \"wallet not created\");\n            sp_sw.owner = true;\n            if (autoMode) {\n                require(\n                    address(s_swProxyLatest) != address(0),\n                    \"no auto version\"\n                );\n                require(\n                    s_versions_code[LATEST] == address(s_swProxyLatest),\n                    \"incorrect auto version\"\n                );\n                s_wallets_version[sp_sw.addr] = LATEST;\n                IProxy(sp_sw.addr).init(owner, address(s_swProxyLatest));\n                IMigrate(sp_sw.addr).migrate(bytes8(0));\n                emit WalletCreated(sp_sw.addr, LATEST, msg.sender);\n            } else {\n                s_wallets_version[sp_sw.addr] = s_production_version;\n                IProxy(sp_sw.addr).init(owner, s_production_version_code);\n                IMigrate(sp_sw.addr).migrate(bytes8(0));\n                emit WalletCreated(\n                    sp_sw.addr,\n                    s_production_version,\n                    msg.sender\n                );\n            }\n        }\n        return sp_sw.addr;\n    }\n\n    /** @notice _generateWallet - private function that creates a wallet using a pre defined code \n                and plantes the creator and target in that code and returns the address created from that*/\n    function _generateWallet(address creator, address target)\n        private\n        returns (address result)\n    {\n        bytes\n            memory code = hex\"60998061000d6000396000f30036601657341560145734602052336001602080a25b005b6000805260046000601c376302d05d3f6000511415604b5773dadadadadadadadadadadadadadadadadadadada602052602080f35b366000803760008036600073bebebebebebebebebebebebebebebebebebebebe5af415608f57341560855734602052600051336002602080a35b3d6000803e3d6000f35b3d6000803e3d6000fd\"; //log3-event-ids-address-funcid-opt (-2,-2) (min: 22440)\n        bytes20 creatorBytes = bytes20(creator);\n        bytes20 targetBytes = bytes20(target);\n        for (uint256 i = 0; i < 20; i++) {\n            code[61 + i] = creatorBytes[i];\n            code[101 + i] = targetBytes[i];\n        }\n        assembly {\n            result := create(0, add(code, 0x20), mload(code))\n        }\n    }\n\n    function _getWalletOfSender() private view returns (Wallet storage) {\n      Wallet storage sp_sw = s_accounts_wallet[msg.sender];\n      require(sp_sw.addr != address(0), \"no wallet\");\n      require(sp_sw.owner, \"not wallet owner\");\n      return sp_sw;\n    }\n}\n",
  "sourcePath": "/Users/brendook/Documents/Projects/Kirobo.io/ki-eth-contracts/contracts/Factory.sol",
  "compiler": {
    "name": "solc",
    "version": "0.8.13+commit.abaa5c0e.Emscripten.clang"
  },
  "schemaVersion": "3.3.4",
  "updatedAt": "2022-05-26T06:17:25.942Z",
  "devdoc": {
    "author": "Tal Asa <tal@kirobo.io> ",
    "kind": "dev",
    "methods": {
      "addVersion(address,address)": {
        "params": {
          "target": "(address)",
          "targetOracle": "(address)"
        }
      },
      "addWalletBackup(address)": {
        "params": {
          "backup": "(address) - the address of the backup wallet"
        }
      },
      "createWallet(bool)": {
        "params": {
          "autoMode": "(bool) - if true: sets the wallet with the latest version if false: sets the wallet with the production version"
        },
        "returns": {
          "_0": "address"
        }
      },
      "deployVersion(bytes8)": {
        "params": {
          "version": "(bytes8) - the version to deploy"
        }
      },
      "owner()": {
        "details": "Returns the address of the current owner."
      },
      "removeWalletBackup(address)": {
        "params": {
          "backup": "(address) - the address of the backup wallet"
        }
      },
      "renounceOwnership()": {
        "details": "Leaves the contract without owner. It will not be possible to call `onlyOwner` functions anymore. Can only be called by the current owner. NOTE: Renouncing ownership will leave the contract without an owner, thereby removing any functionality that is only available to the owner."
      },
      "transferOwnership(address)": {
        "details": "Transfers ownership of the contract to a new account (`newOwner`). Can only be called by the current owner."
      },
      "transferWalletOwnership(address)": {
        "params": {
          "newOwner": "(address) - address of the new owner that the ownership will move to"
        }
      },
      "upgradeWalletRequest(bytes8)": {
        "params": {
          "version": "(bytes8) - version number"
        }
      }
    },
    "title": "Factory contract ",
    "version": 1
  },
  "userdoc": {
    "kind": "user",
    "methods": {
      "addVersion(address,address)": {
        "notice": "addVersion - add a specific version"
      },
      "addWalletBackup(address)": {
        "notice": "addWalletBackup - adds a backup to the current wallet owner "
      },
      "createWallet(bool)": {
        "notice": "createWallet - create a new wallet"
      },
      "deployVersion(bytes8)": {
        "notice": "deployVersion - deployment of a specific version to the system "
      },
      "removeWalletBackup(address)": {
        "notice": "removeWalletBackup - removes a specific address from being the owners backup"
      },
      "transferWalletOwnership(address)": {
        "notice": "transferWalletOwnership - the function transfers the ownership of the wallet  to the newOwner in the input param"
      },
      "upgradeWalletDismiss()": {
        "notice": "upgradeWalletDismiss - dismiss the request for wallet upgrade"
      },
      "upgradeWalletExecute()": {
        "notice": "upgradeWalletExecute - upgrages the wallet version"
      },
      "upgradeWalletRequest(bytes8)": {
        "notice": "upgradeWalletRequest - lets the owner of the wallet an option to upgrade his wallet version"
      }
    },
    "notice": "Factory contract - defines functions that are used by all related contracts",
    "version": 1
  }
}