{
  "contractName": "FactoryProxy",
  "abi": [
    {
      "inputs": [
        {
          "internalType": "contract ENS",
          "name": "ens",
          "type": "address"
        }
      ],
      "stateMutability": "nonpayable",
      "type": "constructor"
    },
    {
      "anonymous": false,
      "inputs": [
        {
          "indexed": true,
          "internalType": "address",
          "name": "previousOwner",
          "type": "address"
        },
        {
          "indexed": true,
          "internalType": "address",
          "name": "newOwner",
          "type": "address"
        }
      ],
      "name": "OwnershipTransferred",
      "type": "event"
    },
    {
      "stateMutability": "nonpayable",
      "type": "fallback"
    },
    {
      "inputs": [],
      "name": "CHAIN_ID",
      "outputs": [
        {
          "internalType": "uint256",
          "name": "",
          "type": "uint256"
        }
      ],
      "stateMutability": "view",
      "type": "function"
    },
    {
      "inputs": [],
      "name": "DOMAIN_SEPARATOR",
      "outputs": [
        {
          "internalType": "bytes32",
          "name": "",
          "type": "bytes32"
        }
      ],
      "stateMutability": "view",
      "type": "function"
    },
    {
      "inputs": [],
      "name": "LATEST",
      "outputs": [
        {
          "internalType": "bytes8",
          "name": "",
          "type": "bytes8"
        }
      ],
      "stateMutability": "view",
      "type": "function"
    },
    {
      "inputs": [],
      "name": "NAME",
      "outputs": [
        {
          "internalType": "string",
          "name": "",
          "type": "string"
        }
      ],
      "stateMutability": "view",
      "type": "function"
    },
    {
      "inputs": [],
      "name": "VERSION",
      "outputs": [
        {
          "internalType": "string",
          "name": "",
          "type": "string"
        }
      ],
      "stateMutability": "view",
      "type": "function"
    },
    {
      "inputs": [],
      "name": "VERSION_NUMBER",
      "outputs": [
        {
          "internalType": "uint8",
          "name": "",
          "type": "uint8"
        }
      ],
      "stateMutability": "view",
      "type": "function"
    },
    {
      "inputs": [],
      "name": "owner",
      "outputs": [
        {
          "internalType": "address",
          "name": "",
          "type": "address"
        }
      ],
      "stateMutability": "view",
      "type": "function"
    },
    {
      "inputs": [],
      "name": "renounceOwnership",
      "outputs": [],
      "stateMutability": "nonpayable",
      "type": "function"
    },
    {
      "inputs": [],
      "name": "s_frozen",
      "outputs": [
        {
          "internalType": "bool",
          "name": "",
          "type": "bool"
        }
      ],
      "stateMutability": "view",
      "type": "function"
    },
    {
      "inputs": [],
      "name": "s_frozen_",
      "outputs": [
        {
          "internalType": "bool",
          "name": "",
          "type": "bool"
        }
      ],
      "stateMutability": "view",
      "type": "function"
    },
    {
      "inputs": [
        {
          "internalType": "address",
          "name": "newOwner",
          "type": "address"
        }
      ],
      "name": "transferOwnership",
      "outputs": [],
      "stateMutability": "nonpayable",
      "type": "function"
    },
    {
      "inputs": [
        {
          "internalType": "address",
          "name": "target",
          "type": "address"
        }
      ],
      "name": "setTarget",
      "outputs": [],
      "stateMutability": "nonpayable",
      "type": "function"
    },
    {
      "inputs": [],
      "name": "freezeTarget",
      "outputs": [],
      "stateMutability": "nonpayable",
      "type": "function"
    },
    {
      "inputs": [
        {
          "internalType": "address",
          "name": "newActivator",
          "type": "address"
        }
      ],
      "name": "setActivator",
      "outputs": [],
      "stateMutability": "nonpayable",
      "type": "function"
    },
    {
      "inputs": [
        {
          "internalType": "string",
          "name": "ens",
          "type": "string"
        },
        {
          "internalType": "address",
          "name": "dest",
          "type": "address"
        }
      ],
      "name": "setLocalEns",
      "outputs": [],
      "stateMutability": "nonpayable",
      "type": "function"
    },
    {
      "inputs": [],
      "name": "uid",
      "outputs": [
        {
          "internalType": "bytes32",
          "name": "",
          "type": "bytes32"
        }
      ],
      "stateMutability": "view",
      "type": "function"
    },
    {
      "inputs": [],
      "name": "activator",
      "outputs": [
        {
          "internalType": "address",
          "name": "",
          "type": "address"
        }
      ],
      "stateMutability": "view",
      "type": "function"
    }
  ],
  "bytecode": "0x608060405234801561001057600080fd5b50604051611b36380380611b3683398101604081905261002f916102a8565b6100383361023e565b6040516100449061028e565b604051809103906000f080158015610060573d6000803e3d6000fd5b50600280546001600160a01b0319166001600160a01b039290921691909117905560405161008d9061029b565b604051809103906000f0801580156100a9573d6000803e3d6000fd5b50600380546001600160a01b039283166001600160a01b03199182168117909255651b185d195cdd60d21b60005260076020527f2a3f3ea100e75b92349ded449e14dab25a5afa6b5c3043834a80569d459659b38054821690921790915560118054928416929091169190911790554630601060c06101296001436102d8565b40901b901c17600160f81b176010819055600e829055604080518082018252600f81526e25b4b937b137902232b83637bcb2b960891b6020918201528151808301835260018152603160f81b90820152905161021b927fd87cd6ef79d4e2b95e15ce8abf732db51ec771f1ca2edccf22a46c729ac56472927f055da6ee9fc168a5f0941d55e0d972c314294350f9b31eb39a6917b28d4102b1927fc89efdaa54c0f20c7adf612882df0950f5a951637e0307cdcb4c672f298b8bc69287923092019586526020860194909452604085019290925260608401526001600160a01b0316608083015260a082015260c00190565b60405160208183030381529060405280519060200120600d8190555050506102fd565b600080546001600160a01b038381166001600160a01b0319831681178455604051919092169283917f8be0079c531659141344cd1fd0a4f28419497f9722a3daafe3b4186f6b6457e09190a35050565b610d1480610a7183390190565b6103b18061178583390190565b6000602082840312156102ba57600080fd5b81516001600160a01b03811681146102d157600080fd5b9392505050565b6000828210156102f857634e487b7160e01b600052601160045260246000fd5b500390565b6107658061030c6000396000f3fe608060405234801561001057600080fd5b506004361061010b5760003560e01c806385e1f4d0116100a2578063c411ce9a11610071578063c411ce9a14610271578063ce04dafb1461027e578063f2fde38b14610286578063f514ce3614610299578063ffa1ad74146102a15761010b565b806385e1f4d0146101f35780638c576fc3146101fc5780638da5cb5b14610225578063a3f4df7e146102365761010b565b8063715018a6116100de578063715018a6146101ab578063776d1a01146101b35780637c0cc0be146101c65780638025e303146101d95761010b565b806309fd0bfb146101315780633644e515146101465780634ecea992146101625780636be44ae714610187575b36600080376000803660006001545af43d6000803e801561012b573d6000f35b503d6000fd5b61014461013f3660046105e5565b6102c1565b005b61014f600d5481565b6040519081526020015b60405180910390f35b600b546001600160a01b03165b6040516001600160a01b039091168152602001610159565b60135461019b90600160a01b900460ff1681565b6040519015158152602001610159565b610144610359565b6101446101c1366004610666565b61038f565b6101446101d4366004610666565b610459565b6101e1600181565b60405160ff9091168152602001610159565b61014f600e5481565b61020c651b185d195cdd60d21b81565b6040516001600160c01b03199091168152602001610159565b6000546001600160a01b031661016f565b6102646040518060400160405280600f81526020016e25b4b937b137902232b83637bcb2b960891b81525081565b6040516101599190610688565b600f5461019b9060ff1681565b6101446104a5565b610144610294366004610666565b6104de565b60105461014f565b610264604051806040016040528060018152602001603160f81b81525081565b6000546001600160a01b031633146102f45760405162461bcd60e51b81526004016102eb906106dd565b60405180910390fd5b8060126000858560405160200161030c929190610712565b60405160208183030381529060405280519060200120815260200190815260200160002060006101000a8154816001600160a01b0302191690836001600160a01b03160217905550505050565b6000546001600160a01b031633146103835760405162461bcd60e51b81526004016102eb906106dd565b61038d6000610579565b565b6000546001600160a01b031633146103b95760405162461bcd60e51b81526004016102eb906106dd565b600f5460ff16156103f55760405162461bcd60e51b8152602060048201526006602482015265333937bd32b760d11b60448201526064016102eb565b6001600160a01b0381166104375760405162461bcd60e51b81526020600482015260096024820152681b9bc81d185c99d95d60ba1b60448201526064016102eb565b600180546001600160a01b0319166001600160a01b0392909216919091179055565b6000546001600160a01b031633146104835760405162461bcd60e51b81526004016102eb906106dd565b600b80546001600160a01b0319166001600160a01b0392909216919091179055565b6000546001600160a01b031633146104cf5760405162461bcd60e51b81526004016102eb906106dd565b600f805460ff19166001179055565b6000546001600160a01b031633146105085760405162461bcd60e51b81526004016102eb906106dd565b6001600160a01b03811661056d5760405162461bcd60e51b815260206004820152602660248201527f4f776e61626c653a206e6577206f776e657220697320746865207a65726f206160448201526564647265737360d01b60648201526084016102eb565b61057681610579565b50565b600080546001600160a01b038381166001600160a01b0319831681178455604051919092169283917f8be0079c531659141344cd1fd0a4f28419497f9722a3daafe3b4186f6b6457e09190a35050565b80356001600160a01b03811681146105e057600080fd5b919050565b6000806000604084860312156105fa57600080fd5b833567ffffffffffffffff8082111561061257600080fd5b818601915086601f83011261062657600080fd5b81358181111561063557600080fd5b87602082850101111561064757600080fd5b60209283019550935061065d91860190506105c9565b90509250925092565b60006020828403121561067857600080fd5b610681826105c9565b9392505050565b600060208083528351808285015260005b818110156106b557858101830151858201604001528201610699565b818111156106c7576000604083870101525b50601f01601f1916929092016040019392505050565b6020808252818101527f4f776e61626c653a2063616c6c6572206973206e6f7420746865206f776e6572604082015260600190565b600160fe1b8152818360018301376000910160010190815291905056fea2646970667358221220434eaa6ffbb4d13bc3b8c07ce150910b5ae527daf6a659938cecd1b1773638a764736f6c634300080d0033608060405234801561001057600080fd5b50600080546001600160a01b03191633179055610ce2806100326000396000f3fe60806040526004361061008a5760003560e01c80638da5cb5b116100595780638da5cb5b1461028e578063d4b83992146102ac578063d5995c4a146102ca578063e3de589714610313578063f09a40161461035c576100dc565b806302d05d3f1461010257806359c091a61461012e57806363a3660c146101bd5780638a1f6075146101fc576100dc565b366100dc576040805162461bcd60e51b815260206004820181905260248201527f73686f756c64206e6f7420616363657074206574686572206469726563746c79604482015290519081900360640190fd5b36600080376000803660006001545af43d6000803e80156100fc573d6000f35b503d6000fd5b34801561010e57600080fd5b5060005b604080516001600160a01b039092168252519081900360200190f35b34801561013a57600080fd5b506101bb6004803603606081101561015157600080fd5b6001600160a01b03823516919081019060408101602082013564010000000081111561017c57600080fd5b82018360208201111561018e57600080fd5b803590602001918460018302840111640100000000831117156101b057600080fd5b919350915035610397565b005b3480156101c957600080fd5b506101bb600480360360608110156101e057600080fd5b506001600160a01b03813516906020810135906040013561058e565b34801561020857600080fd5b506101bb6004803603608081101561021f57600080fd5b6001600160a01b038235169160208101359181019060608101604082013564010000000081111561024f57600080fd5b82018360208201111561026157600080fd5b8035906020019184600183028401116401000000008311171561028357600080fd5b9193509150356106ef565b34801561029a57600080fd5b506000546001600160a01b0316610112565b3480156102b857600080fd5b506001546001600160a01b0316610112565b3480156102d657600080fd5b506101bb600480360360808110156102ed57600080fd5b506001600160a01b03813581169160208101359091169060408101359060600135610866565b34801561031f57600080fd5b5061034a6004803603602081101561033657600080fd5b503560009081526002602052604090205490565b60408051918252519081900360200190f35b34801561036857600080fd5b506101bb6004803603604081101561037f57600080fd5b506001600160a01b0381358116916020013516610a39565b306001600160a01b03166302d05d3f6040518163ffffffff1660e01b8152600401602060405180830381865afa1580156103d5573d6000803e3d6000fd5b505050506040513d60208110156103eb57600080fd5b50516001600160a01b03163314610437576040805162461bcd60e51b815260206004820152600b60248201526a3737ba1031b932b0ba37b960a91b604482015290519081900360640190fd5b801561048c576000818152600260205260409020541561048c576040805162461bcd60e51b815260206004820152601c6024820152600080516020610c8d833981519152604482015290519081900360640190fd5b600080856001600160a01b031685856040518083838082843760405192019450600093509091505080830381855afa9150503d80600081146104ea576040519150601f19603f3d011682016040523d82523d6000602084013e6104ef565b606091505b5091509150816105865761050281610b6b565b60405162461bcd60e51b81526004018080602001828103825283818151815260200191508051906020019080838360005b8381101561054b578181015183820152602001610533565b50505050905090810190601f1680156105785780820380516001836020036101000a031916815260200191505b509250505060405180910390fd5b505050505050565b306001600160a01b03166302d05d3f6040518163ffffffff1660e01b8152600401602060405180830381865afa1580156105cc573d6000803e3d6000fd5b505050506040513d60208110156105e257600080fd5b50516001600160a01b0316331461062e576040805162461bcd60e51b815260206004820152600b60248201526a3737ba1031b932b0ba37b960a91b604482015290519081900360640190fd5b80156106835760008181526002602052604090205415610683576040805162461bcd60e51b815260206004820152601c6024820152600080516020610c8d833981519152604482015290519081900360640190fd5b60405160009081906001600160a01b0386169085908381818185875af1925050503d80600081146106d0576040519150601f19603f3d011682016040523d82523d6000602084013e6106d5565b606091505b5091509150816106e85761050281610b6b565b5050505050565b306001600160a01b03166302d05d3f6040518163ffffffff1660e01b8152600401602060405180830381865afa15801561072d573d6000803e3d6000fd5b505050506040513d602081101561074357600080fd5b50516001600160a01b0316331461078f576040805162461bcd60e51b815260206004820152600b60248201526a3737ba1031b932b0ba37b960a91b604482015290519081900360640190fd5b80156107e457600081815260026020526040902054156107e4576040805162461bcd60e51b815260206004820152601c6024820152600080516020610c8d833981519152604482015290519081900360640190fd5b600080866001600160a01b0316868686604051808383808284376040519201945060009350909150508083038185875af1925050503d8060008114610845576040519150601f19603f3d011682016040523d82523d6000602084013e61084a565b606091505b50915091508161085d5761050281610b6b565b50505050505050565b306001600160a01b03166302d05d3f6040518163ffffffff1660e01b8152600401602060405180830381865afa1580156108a4573d6000803e3d6000fd5b505050506040513d60208110156108ba57600080fd5b50516001600160a01b03163314610906576040805162461bcd60e51b815260206004820152600b60248201526a3737ba1031b932b0ba37b960a91b604482015290519081900360640190fd5b801561095b576000818152600260205260409020541561095b576040805162461bcd60e51b815260206004820152601c6024820152600080516020610c8d833981519152604482015290519081900360640190fd5b604080516001600160a01b038581166024830152604480830186905283518084039091018152606490920183526020820180516001600160e01b031663a9059cbb60e01b178152925182516000948594938a169392918291908083835b602083106109d75780518252601f1990920191602091820191016109b8565b6001836020036101000a0380198251168184511680821785525050505050509050019150506000604051808303816000865af19150503d80600081146104ea576040519150601f19603f3d011682016040523d82523d6000602084013e6104ef565b306001600160a01b03166302d05d3f6040518163ffffffff1660e01b8152600401602060405180830381865afa158015610a77573d6000803e3d6000fd5b505050506040513d6020811015610a8d57600080fd5b50516001600160a01b03163314610ad9576040805162461bcd60e51b815260206004820152600b60248201526a3737ba1031b932b0ba37b960a91b604482015290519081900360640190fd5b6000546001600160a01b03838116911614801590610aff57506001600160a01b03821615155b15610b2057600080546001600160a01b0319166001600160a01b0384161790555b6001546001600160a01b03828116911614801590610b4657506001600160a01b03811615155b15610b6757600180546001600160a01b0319166001600160a01b0383161790555b5050565b6060604482511015610b9657604051806060016040528060258152602001610c686025913992915050565b6004820180519092602401906020811015610bb057600080fd5b8101908080516040519392919084640100000000821115610bd057600080fd5b908301906020820185811115610be557600080fd5b8251640100000000811182820188101715610bff57600080fd5b82525081516020918201929091019080838360005b83811015610c2c578181015183820152602001610c14565b50505050905090810190601f168015610c595780820380516001836020036101000a031916815260200191505b50604052505050905091905056fe57616c6c65743a205472616e73616374696f6e2072657665727465642073696c656e746c7957616c6c65743a207472616e73616374696f6e2063616e63656c656400000000a26469706673582212203d71402e95375b57b2b7f9f2b4d2d63c35c55af9b98096bab280f0bb8d12b3ea64736f6c634300080d0033608060405234801561001057600080fd5b50600080546001600160a01b0319163317905561037f806100326000396000f3fe6080604052600436106100435760003560e01c806302d05d3f146101725780638da5cb5b1461019e578063d4b83992146101bc578063f09a4016146101da57610095565b36610095576040805162461bcd60e51b815260206004820181905260248201527f73686f756c64206e6f7420616363657074206574686572206469726563746c79604482015290519081900360640190fd5b6000306001600160a01b03166302d05d3f6040518163ffffffff1660e01b8152600401602060405180830381865afa1580156100d5573d6000803e3d6000fd5b505050506040513d60208110156100eb57600080fd5b505160408051630e6d1de960e01b815290516001600160a01b0390921691630e6d1de9916004808201926020929091908290030181865afa158015610134573d6000803e3d6000fd5b505050506040513d602081101561014a57600080fd5b505190503660008037600080366000845af43d6000803e801561016c573d6000f35b503d6000fd5b34801561017e57600080fd5b5060005b604080516001600160a01b039092168252519081900360200190f35b3480156101aa57600080fd5b506000546001600160a01b0316610182565b3480156101c857600080fd5b506001546001600160a01b0316610182565b3480156101e657600080fd5b50610215600480360360408110156101fd57600080fd5b506001600160a01b0381358116916020013516610217565b005b306001600160a01b03166302d05d3f6040518163ffffffff1660e01b8152600401602060405180830381865afa158015610255573d6000803e3d6000fd5b505050506040513d602081101561026b57600080fd5b50516001600160a01b031633146102b7576040805162461bcd60e51b815260206004820152600b60248201526a3737ba1031b932b0ba37b960a91b604482015290519081900360640190fd5b6000546001600160a01b038381169116148015906102dd57506001600160a01b03821615155b156102fe57600080546001600160a01b0319166001600160a01b0384161790555b6001546001600160a01b0382811691161480159061032457506001600160a01b03811615155b1561034557600180546001600160a01b0319166001600160a01b0383161790555b505056fea26469706673582212209a11b25ea72498ef4be348e5e25600dde3bf31ef51cefff1155fe5db5338738364736f6c634300080d0033",
  "immutableReferences": {},
  "source": "// SPDX-License-Identifier: UNLICENSED\n\npragma solidity ^0.8.0;\npragma abicoder v2;\n\nimport \"./FactoryStorage.sol\";\n\n/*\n// 1-15     16bit flags\nuint256 constant GAS_PRICE_LIMIT_BIT = 16; // 16-70    64bit gas price limit\nuint256 constant GAS_LIMIT_BIT = 80; // 80-111   32bit gas limit\nuint256 constant BEFORE_TS_BIT = 112; // 112-151  40bit before timestamp\nuint256 constant AFTER_TS_BIT = 152; // 152-191  40bit after timestamp\nuint256 constant NONCE_BIT = 192; // 192-231  40bit nonce\nuint256 constant MAX_NONCE_JUMP_BIT = 216; // 216      24bit of nonce\nuint256 constant GROUP_BIT = 232; // 232-255  24bit group\n\nstruct Signature {\n    bytes32 r;\n    bytes32 s;\n    uint8 v;\n}\n\nstruct Transfer {\n    address signer;\n    bytes32 r;\n    bytes32 s;\n    address token;\n    bytes32 tokenEnsHash;\n    address to;\n    bytes32 toEnsHash;\n    uint256 value;\n    uint256 sessionId;\n}\n\nstruct PackedTransfer {\n    address signer;\n    bytes32 r;\n    bytes32 s;\n    address token;\n    address to;\n    uint256 value;\n    uint256 sessionId;\n}\n\nstruct Call {\n    bytes32 r;\n    bytes32 s;\n    bytes32 typeHash;\n    address to;\n    bytes32 ensHash;\n    uint256 value;\n    uint256 sessionId;\n    address signer;\n    bytes32 functionSignature;\n    bytes data;\n}\n\nstruct PackedCall {\n    bytes32 r;\n    bytes32 s;\n    address to;\n    uint256 value;\n    uint256 sessionId;\n    address signer;\n    bytes data;\n}\n\nstruct MCall {\n    bytes32 typeHash;\n    bytes32 ensHash;\n    uint256 value;\n    bytes32 functionSignature;\n    address to;\n    uint32 gasLimit;\n    uint16 flags;\n    bytes data;\n}\n\nstruct MCalls {\n    bytes32 r;\n    bytes32 s;\n    bytes32 typeHash;\n    uint256 sessionId;\n    address signer;\n    uint8 v;\n    MCall[] mcall;\n}\n\nstruct PackedMCall {\n    uint256 value;\n    address to;\n    uint32 gasLimit;\n    uint16 flags;\n    bytes data;\n}\n\nstruct PackedMCalls {\n    bytes32 r;\n    bytes32 s;\n    uint256 sessionId;\n    address signer;\n    uint8 v;\n    PackedMCall[] mcall;\n}\n\nstruct MSCall {\n    bytes32 typeHash;\n    bytes32 ensHash;\n    bytes32 functionSignature;\n    uint256 value;\n    address signer;\n    uint32 gasLimit;\n    uint16 flags;\n    address to;\n    bytes data;\n}\n\nstruct MSCalls {\n    bytes32 typeHash;\n    uint256 sessionId;\n    MSCall[] mcall;\n    Signature[] signatures;\n}\n\nstruct PackedMSCall {\n    uint256 value;\n    address signer;\n    uint32 gasLimit;\n    uint16 flags;\n    address to;\n    bytes data;\n}\n\nstruct PackedMSCalls {\n    uint256 sessionId;\n    PackedMSCall[] mcall;\n    Signature[] signatures;\n}\n\nstruct MultiSigCallLocals {\n    bytes32 messageHash;\n    uint256 constGas;\n    uint256 gas;\n    uint256 index;\n}\n*/\n\n\ncontract FactoryProxy is FactoryStorage {\n    uint8 public constant VERSION_NUMBER = 0x1;\n\n    string public constant NAME = \"Kirobo Deployer\";\n\n    string public constant VERSION = \"1\";\n\n/*\n    bytes32 public constant BATCH_CALL_PACKED_TYPEHASH =\n        keccak256(\n            \"BatchCallPacked(address to,uint256 value,uint256 sessionId,bytes data)\"\n        );\n\n    bytes32 public constant BATCH_MULTI_CALL_TYPEHASH =\n        keccak256(\n            \"BatchMultiCallPacked(address to,uint256 value,uint256 sessionId,bytes data)\"\n        );\n\n    bytes32 public constant BATCH_MULTI_SIG_CALL_TYPEHASH =\n        keccak256(\n            \"BatchMultiSigCall(Limits limits,Transaction transaction)Limits(uint256 sessionId)Transaction(address signer,address to,uint256 value,uint32 gasLimit,uint16 flags,bytes data)\"\n        );\n\n    bytes32 public constant PACKED_BATCH_MULTI_SIG_CALL_LIMITS_TYPEHASH =\n        keccak256(\"Limits(uint256 sessionId)\");\n\n    bytes32 public constant PACKED_BATCH_MULTI_SIG_CALL_TRANSACTION_TYPEHASH =\n        keccak256(\n            \"Transaction(address signer,address to,uint256 value,uint32 gasLimit,uint16 flags,bytes data)\"\n        );\n\n    bytes32 public constant BATCH_TRANSFER_TYPEHASH =\n        keccak256(\n            \"BatchTransfer(address token_address,string token_ens,address to,string to_ens,uint256 value,uint64 nonce,uint40 valid_from,uint40 expires_at,uint32 gas_limit,uint64 gas_price_limit,bool refund)\"\n        );\n\n    bytes32 public constant BATCH_CALL_TRANSACTION_TYPEHASH =\n        keccak256(\n            \"Transaction(address call_address,string call_ens,uint256 eth_value,uint64 nonce,uint40 valid_from,uint40 expires_at,uint32 gas_limit,uint64 gas_price_limit,bool view_only,bool refund,string method_interface)\"\n        );\n\n    bytes32 public constant BATCH_MULTI_CALL_LIMITS_TYPEHASH =\n        keccak256(\n            \"Limits(uint64 nonce,bool refund,uint40 valid_from,uint40 expires_at,uint64 gas_price_limit)\"\n        );\n\n    bytes32 public constant BATCH_MULTI_CALL_TRANSACTION_TYPEHASH =\n        keccak256(\n            \"Transaction(address call_address,string call_ens,uint256 eth_value,uint32 gas_limit,bool view_only,bool continue_on_fail,bool stop_on_fail,bool stop_on_success,bool revert_on_success,string method_interface)\"\n        );\n\n    bytes32 public constant BATCH_MULTI_SIG_CALL_LIMITS_TYPEHASH =\n        keccak256(\n            \"Limits(uint64 nonce,bool refund,uint40 valid_from,uint40 expires_at,uint64 gas_price_limit)\"\n        );\n\n    bytes32 public constant BATCH_MULTI_SIG_CALL_TRANSACTION_TYPEHASH =\n        keccak256(\n            \"Transaction(address signer,address call_address,string call_ens,uint256 eth_value,uint32 gas_limit,bool view_only,bool continue_on_fail,bool stop_on_fail,bool stop_on_success,bool revert_on_success,string method_interface)\"\n        );\n\n    bytes32 public constant BATCH_MULTI_SIG_CALL_APPROVAL_TYPEHASH =\n        keccak256(\"Approval(address signer)\");\n\n    bytes32 public constant BATCH_TRANSFER_PACKED_TYPEHASH =\n        keccak256(\n            \"BatchTransferPacked(address token,address to,uint256 value,uint256 sessionId)\"\n        );\n\n    // event ErrorHandled(bytes reason);\n    event TransferReverted(\n        address indexed wallet,\n        uint256 nonce,\n        uint256 index\n    );\n    event TransferPackedReverted(\n        address indexed wallet,\n        uint256 nonce,\n        uint256 index\n    );\n    event BatchCallReverted(\n        address indexed wallet,\n        uint256 nonce,\n        uint256 index\n    );\n    event BatchCallPackedReverted(\n        address indexed wallet,\n        uint256 nonce,\n        uint256 index\n    );\n    event BatchMultiCallFailed(\n        address indexed wallet,\n        uint256 nonce,\n        uint256 index,\n        uint256 innerIndex\n    );\n    event BatchMultiCallPackedFailed(\n        address indexed wallet,\n        uint256 nonce,\n        uint256 index,\n        uint256 innerIndex\n    );\n    event BatchMultiSigCallFailed(\n        address indexed wallet,\n        uint256 nonce,\n        uint256 index,\n        uint256 innerIndex\n    );\n    event BatchMultiSigCallPackedFailed(\n        address indexed wallet,\n        uint256 nonce,\n        uint256 index,\n        uint256 innerIndex\n    );\n    event BatchTransfered(uint256 indexed mode, uint256 block, uint256 nonce);\n    */\n    constructor(ENS ens) FactoryStorage() {\n        s_ens = ens;\n\n        uint256 chainId;\n        assembly {\n            chainId := chainid()\n        }\n\n        s_uid = bytes32(\n            (uint256(VERSION_NUMBER) << 248) |\n                ((uint256(blockhash(block.number - 1)) << 192) >> 16) |\n                uint256(uint160(address(this)))\n        );\n\n        CHAIN_ID = chainId;\n\n        DOMAIN_SEPARATOR = keccak256(\n            abi.encode(\n                keccak256(\n                    \"EIP712Domain(string name,string version,uint256 chainId,address verifyingContract,bytes32 salt)\"\n                ),\n                keccak256(bytes(NAME)),\n                keccak256(bytes(VERSION)),\n                chainId,\n                address(this),\n                s_uid\n            )\n        );\n    }\n\n    fallback() external {\n        assembly {\n            calldatacopy(0x00, 0x00, calldatasize())\n            let res := delegatecall(\n                gas(),\n                sload(s_target.slot),\n                0x00,\n                calldatasize(),\n                0,\n                0\n            )\n            returndatacopy(0x00, 0x00, returndatasize())\n            if res {\n                return(0x00, returndatasize())\n            }\n            revert(0x00, returndatasize())\n        }\n    }\n\n    function setTarget(address target) external onlyOwner {\n        require(!s_frozen, \"frozen\");\n        require(target != address(0), \"no target\");\n        s_target = target;\n    }\n\n    function freezeTarget() external onlyOwner {\n        s_frozen = true;\n    }\n\n    function setActivator(address newActivator) external onlyOwner {\n        s_activator = newActivator;\n    }\n\n    function setLocalEns(string calldata ens, address dest) external onlyOwner {\n        s_local_ens[keccak256(abi.encodePacked(\"@\", ens))] = dest;\n    }\n\n    // function collectDebt(address account, address recipient) external {\n    //     unchecked {\n    //         require(recipient != address(0), \"Wallet: no recipient\");\n    //         require(msg.sender == s_activator, \"Wallet: sender not allowed\");\n    //         Wallet storage wallet = s_accounts_wallet[account];\n    //         uint256 debt = wallet.debt;\n    //         if (debt > 0) {\n    //             wallet.debt = 0;\n    //             (bool success, bytes memory res) = wallet.addr.call(\n    //                 abi.encodeWithSignature(\n    //                     \"transferEth(address,uint256,bytes32)\",\n    //                     recipient,\n    //                     debt,\n    //                     bytes32(0)\n    //                 )\n    //             );\n    //             if (!success) {\n    //                 revert(_getRevertMsg(res));\n    //             }\n    //         }\n    //     }\n    // }\n\n    // // Batch Transfers: ETH & ERC20 Tokens\n    // function batchTransfer(\n    //     Transfer[] calldata tr,\n    //     uint24 nonceGroup,\n    //     bool silentRevert\n    // ) external {\n    //     require(msg.sender == s_activator, \"Wallet: sender not allowed\");\n    //     unchecked {\n    //         uint256 ng = nonceGroup;\n    //         uint256 nonce = s_nonce_group[ng] + (ng << GROUP_BIT);\n    //         uint256 maxNonce = 0;\n    //         uint256 constGas = 12000 + ((21000 + msg.data.length * 8) / tr.length);\n    //         for (uint256 i = 0; i < tr.length; i++) {\n    //             uint256 gas = gasleft();\n    //             Transfer calldata call = tr[i];\n    //             address to = _ensToAddress(call.toEnsHash, call.to);\n    //             address token = _ensToAddress(call.tokenEnsHash, call.token);\n    //             uint256 sessionId = call.sessionId;\n    //             uint256 gasLimit = uint32(sessionId >> GAS_LIMIT_BIT);\n\n    //             _checkSessionIdLimits(i, sessionId, nonce, maxNonce);\n    //             maxNonce = sessionId;\n\n    //             bytes32 messageHash = _messageToRecover(\n    //                 _encodeTransfer(call),\n    //                 sessionId & FLAG_EIP712 != 0\n    //             );\n\n    //             Wallet storage wallet = _getWalletFromMessage(\n    //                 call.signer,\n    //                 messageHash,\n    //                 uint8(sessionId), /*v*/\n    //                 call.r,\n    //                 call.s\n    //             );\n\n    //             require(wallet.owner, \"Factory: signer is not owner\");\n\n    //             (bool success, bytes memory res) = call.token == address(0)\n    //                 ? wallet.addr.call{\n    //                     gas: gasLimit == 0 || gasLimit > gasleft()\n    //                         ? gasleft()\n    //                         : gasLimit\n    //                 }(\n    //                     abi.encodeWithSignature(\n    //                         \"transferEth(address,uint256,bytes32)\",\n    //                         to,\n    //                         call.value,\n    //                         sessionId & FLAG_CANCELABLE != 0\n    //                             ? messageHash\n    //                             : bytes32(0)\n    //                     )\n    //                 )\n    //                 : wallet.addr.call{\n    //                     gas: gasLimit == 0 || gasLimit > gasleft()\n    //                         ? gasleft()\n    //                         : gasLimit\n    //                 }(\n    //                     abi.encodeWithSignature(\n    //                         \"transferERC20(address,address,uint256,bytes32)\",\n    //                         token,\n    //                         to,\n    //                         call.value,\n    //                         sessionId & FLAG_CANCELABLE != 0\n    //                             ? messageHash\n    //                             : bytes32(0)\n    //                     )\n    //                 );\n    //             if (!success) {\n    //                 if (!silentRevert) {\n    //                     emit TransferReverted(wallet.addr, nonce, i);\n    //                     continue;\n    //                 } else {\n    //                     revert(_getRevertMsg(res));\n    //                 }\n    //             }\n\n    //             if (sessionId & FLAG_PAYMENT != 0 && success) {\n    //                 wallet.debt += _calcRefund(\n    //                     wallet.debt,\n    //                     gas,\n    //                     constGas, //  + 12000,\n    //                     uint64(sessionId >> 16)\n    //                 );\n    //             }\n    //         }\n    //         s_nonce_group[ng] = _nextNonce(nonce, maxNonce);\n    //         emit BatchTransfered(0, block.number, maxNonce);\n    //     }\n    // }\n\n    // // Batch Transfers: ETH & ERC20 Tokens\n    // function batchTransferPacked(\n    //     PackedTransfer[] calldata tr,\n    //     uint24 nonceGroup,\n    //     bool silentRevert\n    // ) external {\n    //     require(msg.sender == s_activator, \"Wallet: sender not allowed\");\n    //     unchecked {\n    //         uint256 ng = nonceGroup;\n    //         uint256 nonce = s_nonce_group[ng] + (ng << GROUP_BIT);\n    //         uint256 maxNonce = 0;\n    //         uint256 constGas = 12000 + ((21000 + msg.data.length * 8) / tr.length);\n    //         for (uint256 i = 0; i < tr.length; i++) {\n    //             uint256 gas = gasleft();\n    //             PackedTransfer calldata call = tr[i];\n    //             address to = call.to;\n    //             uint256 sessionId = call.sessionId;\n    //             uint256 gasLimit = uint32(sessionId >> GAS_LIMIT_BIT);\n\n    //             _checkSessionIdLimits(i, sessionId, nonce, maxNonce);\n    //             maxNonce = sessionId;\n\n    //             bytes32 messageHash = _messageToRecover(\n    //                 keccak256(\n    //                     abi.encode(\n    //                         BATCH_TRANSFER_PACKED_TYPEHASH,\n    //                         call.token,\n    //                         to,\n    //                         call.value,\n    //                         sessionId >> 8\n    //                     )\n    //                 ),\n    //                 sessionId & FLAG_EIP712 != 0\n    //             );\n\n    //             Wallet storage wallet = _getWalletFromMessage(\n    //                 call.signer,\n    //                 messageHash,\n    //                 uint8(sessionId), /*v*/\n    //                 call.r,\n    //                 call.s\n    //             );\n\n    //             require(wallet.owner, \"Factory: signer is not owner\");\n\n    //             uint256 localNonce;\n    //             bool localSilentRevert;\n    //             {\n    //                 localNonce = nonce;\n    //                 localSilentRevert = silentRevert;\n    //             }\n\n    //             (bool success, bytes memory res) = call.token == address(0)\n    //                 ? wallet.addr.call{\n    //                     gas: gasLimit == 0 || gasLimit > gasleft()\n    //                         ? gasleft()\n    //                         : gasLimit\n    //                 }(\n    //                     abi.encodeWithSignature(\n    //                         \"transferEth(address,uint256,bytes32)\",\n    //                         to,\n    //                         call.value,\n    //                         sessionId & FLAG_CANCELABLE != 0\n    //                             ? messageHash\n    //                             : bytes32(0)\n    //                     )\n    //                 )\n    //                 : wallet.addr.call{\n    //                     gas: gasLimit == 0 || gasLimit > gasleft()\n    //                         ? gasleft()\n    //                         : gasLimit\n    //                 }(\n    //                     abi.encodeWithSignature(\n    //                         \"transferERC20(address,address,uint256,bytes32)\",\n    //                         call.token,\n    //                         to,\n    //                         call.value,\n    //                         sessionId & FLAG_CANCELABLE != 0\n    //                             ? messageHash\n    //                             : bytes32(0)\n    //                     )\n    //                 );\n    //             if (!success) {\n    //                 if (!localSilentRevert) {\n    //                     emit TransferPackedReverted(wallet.addr, localNonce, i);\n    //                     continue;\n    //                 } else {\n    //                     revert(_getRevertMsg(res));\n    //                 }\n    //             }\n\n    //             if (sessionId & FLAG_PAYMENT != 0 && success) {\n    //                 wallet.debt += _calcRefund(\n    //                     wallet.debt,\n    //                     gas,\n    //                     constGas, //  + 12000,\n    //                     uint64(sessionId >> 16)\n    //                 );\n    //             }\n    //         }\n    //         s_nonce_group[ng] = _nextNonce(nonce, maxNonce);\n    //         emit BatchTransfered(4, block.number, maxNonce);\n    //     }\n    // }\n\n    // function _executeCall(\n    //     address wallet,\n    //     address to,\n    //     uint16 flags,\n    //     uint32 gasLimit,\n    //     bytes32 messageHash,\n    //     bytes32 functionSignature,\n    //     uint256 value,\n    //     bool packed,\n    //     bytes calldata data\n    // ) private returns (bool, bytes memory) {\n    //     if (flags & FLAG_CANCELABLE != 0) {\n    //         messageHash = bytes32(0);\n    //     }\n    //     return\n    //         flags & FLAG_STATICCALL != 0\n    //             ? wallet.call{\n    //                 gas: gasLimit == 0 || gasLimit > gasleft()\n    //                     ? gasleft()\n    //                     : gasLimit\n    //             }(\n    //                 abi.encodeWithSignature(\n    //                     \"LocalStaticCall(address,bytes,bytes32)\",\n    //                     to,\n    //                     packed\n    //                         ? data\n    //                         : functionSignature ==\n    //                             0xc5d2460186f7233c927e7db2dcc703c0e500b653ca82273b7bfad8045d85a470\n    //                         ? bytes(\"\")\n    //                         : abi.encodePacked(bytes4(functionSignature), data),\n    //                     messageHash\n    //                 )\n    //             )\n    //             : wallet.call{\n    //                 gas: gasLimit == 0 || gasLimit > gasleft()\n    //                     ? gasleft()\n    //                     : gasLimit\n    //             }(\n    //                 abi.encodeWithSignature(\n    //                     \"LocalCall(address,uint256,bytes,bytes32)\",\n    //                     to,\n    //                     value,\n    //                     packed\n    //                         ? data\n    //                         : functionSignature ==\n    //                             0xc5d2460186f7233c927e7db2dcc703c0e500b653ca82273b7bfad8045d85a470\n    //                         ? bytes(\"\")\n    //                         : packed\n    //                         ? data\n    //                         : abi.encodePacked(bytes4(functionSignature), data),\n    //                     messageHash\n    //                 )\n    //             );\n    // }\n\n    // function _executeCall(\n    //     address wallet,\n    //     address to,\n    //     uint16 flags,\n    //     uint32 gasLimit,\n    //     bytes32 messageHash,\n    //     bytes32 functionSignature,\n    //     uint256 value,\n    //     bytes calldata data\n    // ) private returns (bool, bytes memory) {\n    //     return\n    //         _executeCall(\n    //             wallet,\n    //             to,\n    //             flags,\n    //             gasLimit,\n    //             messageHash,\n    //             functionSignature,\n    //             value,\n    //             false,\n    //             data\n    //         );\n    // }\n\n    // function _executePackedCall(\n    //     address wallet,\n    //     address to,\n    //     uint16 flags,\n    //     uint32 gasLimit,\n    //     bytes32 messageHash,\n    //     uint256 value,\n    //     bytes calldata data\n    // ) private returns (bool, bytes memory) {\n    //     return\n    //         _executeCall(\n    //             wallet,\n    //             to,\n    //             flags,\n    //             gasLimit,\n    //             messageHash,\n    //             bytes32(0),\n    //             value,\n    //             true,\n    //             data\n    //         );\n    // }\n\n    // // Batch Call: External Contract Functions\n    // function batchCall(\n    //     Call[] calldata tr,\n    //     uint256 nonceGroup,\n    //     bool silentRevert\n    // ) external {\n    //     require(msg.sender == s_activator, \"Wallet: sender not allowed\");\n    //     unchecked {\n    //         uint256 ng = nonceGroup;\n    //         uint256 nonce = s_nonce_group[ng] + (ng << GROUP_BIT);\n    //         uint256 maxNonce = 0;\n    //         uint256 constGas = (21000 + msg.data.length * 16) / tr.length;\n    //         for (uint256 i = 0; i < tr.length; i++) {\n    //             uint256 gas = gasleft();\n\n    //             Call calldata call = tr[i];\n    //             uint256 sessionId = call.sessionId;\n\n    //             _checkSessionIdLimits(i, sessionId, nonce, maxNonce);\n\n    //             maxNonce = sessionId;\n\n    //             (bytes32 callHash, address to) = _encodeCall(call);\n\n    //             bytes32 messageHash = _messageToRecover(\n    //                 callHash,\n    //                 sessionId & FLAG_EIP712 != 0\n    //             );\n\n    //             Wallet storage wallet = _getWalletFromMessage(\n    //                 call.signer,\n    //                 messageHash,\n    //                 uint8(sessionId), /*v*/\n    //                 call.r,\n    //                 call.s\n    //             );\n\n    //             require(wallet.owner, \"Factory: signer is not owner\");\n\n    //             (bool success, bytes memory res) = _executeCall(\n    //                 wallet.addr,\n    //                 to,\n    //                 uint16(sessionId),\n    //                 uint32(sessionId >> GAS_LIMIT_BIT),\n    //                 messageHash,\n    //                 call.functionSignature,\n    //                 call.value,\n    //                 call.data\n    //             );\n    //             if (!success) {\n    //                 if (!silentRevert) {\n    //                     emit BatchCallReverted(wallet.addr, nonce, i);\n    //                     continue;\n    //                 } else {\n    //                     revert(_getRevertMsg(res));\n    //                 }\n    //             }\n    //             if (sessionId & FLAG_PAYMENT != 0 && success) {\n    //                 wallet.debt += _calcRefund(\n    //                     wallet.debt,\n    //                     gas,\n    //                     constGas,\n    //                     uint64(sessionId >> 16)\n    //                 );\n    //             }\n    //         }\n\n    //         s_nonce_group[ng] = _nextNonce(nonce, maxNonce);\n    //         emit BatchTransfered(1, block.number, maxNonce);\n    //     }\n    // }\n\n    // function batchCallPacked(\n    //     PackedCall[] calldata tr,\n    //     uint256 nonceGroup,\n    //     bool silentRevert\n    // ) external {\n    //     require(msg.sender == s_activator, \"Wallet: sender not allowed\");\n    //     unchecked {\n    //         uint256 ng = nonceGroup;\n    //         uint256 nonce = s_nonce_group[ng] + (ng << GROUP_BIT);\n    //         uint256 maxNonce = 0;\n    //         // uint256 length = tr.length;\n    //         uint256 constGas = (21000 + msg.data.length * 8) / tr.length;\n    //         for (uint256 i = 0; i < tr.length; i++) {\n    //             uint256 gas = gasleft();\n\n    //             PackedCall calldata call = tr[i];\n    //             address to = call.to;\n    //             uint256 sessionId = call.sessionId;\n\n    //             _checkSessionIdLimits(i, sessionId, nonce, maxNonce);\n    //             maxNonce = sessionId;\n\n    //             bytes32 trHash = keccak256(\n    //                 abi.encode(\n    //                     BATCH_CALL_PACKED_TYPEHASH,\n    //                     to,\n    //                     call.value,\n    //                     sessionId >> 8,\n    //                     call.data\n    //                 )\n    //             );\n    //             bytes32 messageHash = _messageToRecover(\n    //                 trHash,\n    //                 sessionId & FLAG_EIP712 != 0\n    //             );\n\n    //             Wallet storage wallet = _getWalletFromMessage(\n    //                 call.signer,\n    //                 messageHash,\n    //                 uint8(sessionId), /*v*/\n    //                 call.r,\n    //                 call.s\n    //             );\n\n    //             require(wallet.owner, \"Factory: signer is not owner\");\n\n    //             (bool success, bytes memory res) = _executePackedCall(\n    //                 wallet.addr,\n    //                 to,\n    //                 uint16(sessionId),\n    //                 uint32(sessionId >> GAS_LIMIT_BIT),\n    //                 messageHash,\n    //                 call.value,\n    //                 call.data\n    //             );\n\n    //             if (!success) {\n    //                 if (!silentRevert) {\n    //                     emit BatchCallPackedReverted(wallet.addr, nonce, i);\n    //                     continue;\n    //                 } else {\n    //                     revert(_getRevertMsg(res));\n    //                 }\n    //             }\n    //             if (sessionId & FLAG_PAYMENT != 0 && success) {\n    //                 wallet.debt += _calcRefund(\n    //                     wallet.debt,\n    //                     gas,\n    //                     constGas,\n    //                     uint64(sessionId >> 16)\n    //                 );\n    //             }\n    //         }\n    //         s_nonce_group[ng] = _nextNonce(nonce, maxNonce);\n    //         emit BatchTransfered(5, block.number, maxNonce);\n    //     }\n    // }\n\n    // // Batch Call: Multi External Contract Functions\n    // function batchMultiCall(MCalls[] calldata tr, uint256 nonceGroup) external {\n    //     require(msg.sender == s_activator, \"Wallet: sender not allowed\");\n    //     unchecked {\n    //         uint256 ng = nonceGroup;\n    //         uint256 nonce = s_nonce_group[ng] + (ng << GROUP_BIT);\n    //         uint256 maxNonce = 0;\n    //         uint256 constGas = (21000 + msg.data.length * 8) / tr.length;\n    //         for (uint256 i = 0; i < tr.length; i++) {\n    //             uint256 gas = gasleft();\n    //             MCalls calldata mcalls = tr[i];\n    //             uint256 sessionId = mcalls.sessionId;\n    //             bytes memory msg2 = abi.encode(\n    //                 mcalls.typeHash,\n    //                 keccak256(\n    //                     abi.encode(\n    //                         BATCH_MULTI_CALL_LIMITS_TYPEHASH,\n    //                         uint64(sessionId >> NONCE_BIT), // group + nonce\n    //                         sessionId & FLAG_PAYMENT != 0,\n    //                         uint40(sessionId >> AFTER_TS_BIT),\n    //                         uint40(sessionId >> BEFORE_TS_BIT),\n    //                         uint64(sessionId >> GAS_PRICE_LIMIT_BIT)\n    //                     )\n    //                 )\n    //             );\n\n    //             _checkSessionIdLimits(i, sessionId, nonce, maxNonce);\n    //             maxNonce = sessionId;\n\n    //             uint256 length = mcalls.mcall.length;\n\n    //             for (uint256 j = 0; j < length; j++) {\n    //                 MCall calldata call = mcalls.mcall[j];\n    //                 uint16 flags = call.flags;\n\n    //                 bytes32 transactionHash = keccak256(\n    //                     abi.encode(\n    //                         BATCH_MULTI_CALL_TRANSACTION_TYPEHASH,\n    //                         call.to,\n    //                         call.ensHash,\n    //                         call.value,\n    //                         call.gasLimit,\n    //                         flags & FLAG_STATICCALL,\n    //                         flags & ON_FAIL_CONTINUE > 0,\n    //                         flags & ON_FAIL_STOP > 0,\n    //                         flags & ON_SUCCESS_STOP > 0,\n    //                         flags & ON_SUCCESS_REVERT > 0,\n    //                         call.functionSignature\n    //                     )\n    //                 );\n\n    //                 msg2 = abi.encodePacked(\n    //                     msg2,\n    //                     call.functionSignature !=\n    //                         0xc5d2460186f7233c927e7db2dcc703c0e500b653ca82273b7bfad8045d85a470\n    //                         ? keccak256(\n    //                             abi.encode(\n    //                                 call.typeHash,\n    //                                 transactionHash,\n    //                                 call.data\n    //                             )\n    //                         )\n    //                         : keccak256(\n    //                             abi.encode(call.typeHash, transactionHash)\n    //                         )\n    //                 );\n    //             }\n\n    //             bytes32 messageHash = _messageToRecover(\n    //                 keccak256(msg2),\n    //                 sessionId & FLAG_EIP712 != 0\n    //             );\n\n    //             Wallet storage wallet = _getWalletFromMessage(\n    //                 mcalls.signer,\n    //                 messageHash,\n    //                 mcalls.v,\n    //                 mcalls.r,\n    //                 mcalls.s\n    //             );\n\n    //             require(wallet.owner, \"Factory: signer is not owner\");\n\n    //             uint256 localNonce;\n    //             uint256 localIndex;\n    //             bytes32 localMessageHash;\n\n    //             {\n    //                 localNonce = nonce;\n    //                 localIndex = i;\n    //                 localMessageHash = messageHash;\n    //             }\n\n    //             for (uint256 j = 0; j < length; j++) {\n    //                 MCall calldata call = mcalls.mcall[j];\n    //                 uint16 flags = call.flags;\n\n    //                 (bool success, bytes memory res) = _executeCall(\n    //                     wallet.addr,\n    //                     _ensToAddress(call.ensHash, call.to),\n    //                     flags,\n    //                     call.gasLimit,\n    //                     localMessageHash,\n    //                     call.functionSignature,\n    //                     call.value,\n    //                     call.data\n    //                 );\n\n    //                 if (!success) {\n    //                     emit BatchMultiCallFailed(\n    //                         wallet.addr,\n    //                         localNonce,\n    //                         localIndex,\n    //                         j\n    //                     );\n    //                     if (flags & ON_FAIL_CONTINUE != 0) {\n    //                         continue;\n    //                     } else if (flags & ON_FAIL_STOP != 0) {\n    //                         break;\n    //                     }\n    //                     revert(_getRevertMsg(res));\n    //                 } else if (flags & ON_SUCCESS_STOP != 0) {\n    //                     break;\n    //                 } else if (flags & ON_SUCCESS_REVERT != 0) {\n    //                     revert(\"Factory: revert on success\");\n    //                 }\n    //             }\n    //             if (sessionId & FLAG_PAYMENT != 0) {\n    //                 wallet.debt += _calcRefund(\n    //                     wallet.debt,\n    //                     gas,\n    //                     constGas,\n    //                     uint64(sessionId >> 16) /*gasPriceLimit*/\n    //                 );\n    //             }\n    //         }\n    //         s_nonce_group[ng] = _nextNonce(nonce, maxNonce);\n    //         emit BatchTransfered(2, block.number, maxNonce);\n    //     }\n    // }\n\n    // function batchMultiCallPacked(\n    //     PackedMCalls[] calldata tr,\n    //     uint256 nonceGroup\n    // ) external {\n    //     require(msg.sender == s_activator, \"Wallet: sender not allowed\");\n    //     unchecked {\n    //         uint256 ng = nonceGroup;\n    //         uint256 nonce = s_nonce_group[ng] + (ng << GROUP_BIT);\n    //         uint256 maxNonce = 0;\n    //         uint256 constGas = (21000 + msg.data.length * 8) / tr.length;\n    //         for (uint256 i = 0; i < tr.length; i++) {\n    //             uint256 gas = gasleft();\n    //             PackedMCalls calldata mcalls = tr[i];\n    //             bytes memory msgPre = abi.encode(\n    //                 0x20,\n    //                 mcalls.mcall.length,\n    //                 32 * mcalls.mcall.length\n    //             );\n    //             bytes memory msg2;\n    //             uint256 sessionId = mcalls.sessionId;\n    //             uint256 gasPriceLimit = uint64(sessionId >> 16);\n\n    //             _checkSessionIdLimits(i, sessionId, nonce, maxNonce);\n    //             maxNonce = sessionId;\n\n    //             uint256 length = mcalls.mcall.length;\n    //             for (uint256 j = 0; j < length; j++) {\n    //                 PackedMCall calldata call = mcalls.mcall[j];\n    //                 address to = call.to;\n    //                 msg2 = abi.encodePacked(\n    //                     msg2,\n    //                     abi.encode(\n    //                         BATCH_MULTI_CALL_TYPEHASH,\n    //                         to,\n    //                         call.value,\n    //                         sessionId,\n    //                         call.data\n    //                     )\n    //                 );\n    //                 if (j < mcalls.mcall.length - 1) {\n    //                     msgPre = abi.encodePacked(\n    //                         msgPre,\n    //                         msg2.length + 32 * mcalls.mcall.length\n    //                     );\n    //                 }\n    //             }\n\n    //             bytes32 messageHash = _messageToRecover(\n    //                 keccak256(abi.encodePacked(msgPre, msg2)),\n    //                 sessionId & FLAG_EIP712 != 0\n    //             );\n\n    //             Wallet storage wallet = _getWalletFromMessage(\n    //                 mcalls.signer,\n    //                 messageHash,\n    //                 mcalls.v,\n    //                 mcalls.r,\n    //                 mcalls.s\n    //             );\n    //             require(wallet.owner, \"Factory: signer is not owner\");\n\n    //             uint256 localNonce;\n    //             uint256 localIndex;\n    //             {\n    //                 localNonce = nonce;\n    //                 localIndex = i;\n    //             }\n\n    //             for (uint256 j = 0; j < length; j++) {\n    //                 PackedMCall calldata call = mcalls.mcall[j];\n    //                 uint16 flags = call.flags;\n\n    //                 (bool success, bytes memory res) = _executePackedCall(\n    //                     wallet.addr,\n    //                     call.to,\n    //                     flags,\n    //                     call.gasLimit,\n    //                     messageHash,\n    //                     call.value,\n    //                     call.data\n    //                 );\n\n    //                 if (!success) {\n    //                     emit BatchMultiCallPackedFailed(\n    //                         wallet.addr,\n    //                         localNonce,\n    //                         localIndex,\n    //                         j\n    //                     );\n    //                     if (flags & ON_FAIL_CONTINUE > 0) {\n    //                         continue;\n    //                     } else if (flags & ON_FAIL_STOP > 0) {\n    //                         break;\n    //                     }\n    //                     revert(_getRevertMsg(res));\n    //                 } else if (flags & ON_SUCCESS_STOP > 0) {\n    //                     break;\n    //                 } else if (flags & ON_SUCCESS_REVERT > 0) {\n    //                     revert(\"Factory: revert on success\");\n    //                 }\n    //             }\n    //             if (sessionId & FLAG_PAYMENT > 0) {\n    //                 wallet.debt += _calcRefund(\n    //                     wallet.debt,\n    //                     gas,\n    //                     constGas,\n    //                     gasPriceLimit\n    //                 );\n    //             }\n    //         }\n    //         s_nonce_group[ng] = _nextNonce(nonce, maxNonce);\n    //         emit BatchTransfered(6, block.number, maxNonce);\n    //     }\n    // }\n\n    // // Batch Call: Multi Signature, Multi External Contract Functions\n    // function batchMultiSigCall(MSCalls[] calldata tr, uint256 nonceGroup)\n    //     external\n    // {\n    //     require(msg.sender == s_activator, \"Wallet: sender not allowed\");\n    //     unchecked {\n    //         uint256 ng = nonceGroup;\n    //         uint256 nonce = s_nonce_group[ng] + (ng << GROUP_BIT);\n    //         uint256 maxNonce = 0;\n    //         uint256 trLength = tr.length;\n    //         uint256 constGas = (21000 + msg.data.length * 8) / trLength;\n    //         for (uint256 i = 0; i < trLength; i++) {\n    //             uint256 gas = gasleft();\n    //             MSCalls calldata mcalls = tr[i];\n    //             uint256 sessionId = mcalls.sessionId;\n    //             bytes memory msg2 = abi.encode(\n    //                 mcalls.typeHash,\n    //                 keccak256(\n    //                     abi.encode(\n    //                         BATCH_MULTI_SIG_CALL_LIMITS_TYPEHASH,\n    //                         uint64(sessionId >> NONCE_BIT), // group + nonce\n    //                         sessionId & FLAG_PAYMENT != 0,\n    //                         uint40(sessionId >> AFTER_TS_BIT),\n    //                         uint40(sessionId >> BEFORE_TS_BIT),\n    //                         uint64(sessionId >> GAS_PRICE_LIMIT_BIT)\n    //                     )\n    //                 )\n    //             );\n\n    //             _checkSessionIdLimits(i, sessionId, nonce, maxNonce);\n    //             maxNonce = sessionId;\n\n    //             uint256 length = mcalls.mcall.length;\n\n    //             for (uint256 j = 0; j < length; j++) {\n    //                 MSCall calldata call = mcalls.mcall[j];\n\n    //                 msg2 = abi.encodePacked(\n    //                     msg2,\n    //                     // messageHash\n    //                     call.functionSignature !=\n    //                         0xc5d2460186f7233c927e7db2dcc703c0e500b653ca82273b7bfad8045d85a470\n    //                         ? keccak256(\n    //                             abi.encode(\n    //                                 call.typeHash,\n    //                                 _calcMultiSigTransactionHash(call),\n    //                                 call.data\n    //                             )\n    //                         )\n    //                         : call.to != address(0)\n    //                         ? keccak256(\n    //                             abi.encode(\n    //                                 call.typeHash,\n    //                                 _calcMultiSigTransactionHash(call)\n    //                             )\n    //                         )\n    //                         : keccak256(\n    //                             abi.encode(\n    //                                 BATCH_MULTI_SIG_CALL_APPROVAL_TYPEHASH,\n    //                                 call.signer\n    //                             )\n    //                         )\n    //                 );\n    //             }\n\n    //             bytes32 messageHash = _messageToRecover(\n    //                 keccak256(msg2),\n    //                 sessionId & FLAG_EIP712 != 0\n    //             );\n\n    //             address[] memory signers = new address[](length);\n\n    //             for (uint256 s = 0; s < mcalls.signatures.length; ++s) {\n    //                 Signature calldata signature = mcalls.signatures[s];\n    //                 for (uint256 j = 0; j < length; j++) {\n    //                     MSCall calldata call = mcalls.mcall[j];\n    //                     address signer = _addressFromMessageAndSignature(\n    //                         messageHash,\n    //                         signature.v,\n    //                         signature.r,\n    //                         signature.s\n    //                     );\n    //                     if (signer == call.signer && signers[j] == address(0)) {\n    //                         signers[j] = signer;\n    //                     }\n    //                 }\n    //             }\n\n    //             MultiSigCallLocals memory locals;\n    //             uint256 localSessionId;\n    //             uint256 localNonce;\n    //             {\n    //                 localSessionId = sessionId;\n    //                 localNonce = nonce;\n    //                 locals.index = i;\n    //                 locals.constGas = constGas;\n    //                 locals.gas = gas;\n    //                 if (sessionId & FLAG_CANCELABLE != 0) {\n    //                     locals.messageHash = messageHash;\n    //                 }\n    //             }\n\n    //             for (uint256 j = 0; j < length; j++) {\n    //                 require(\n    //                     signers[j] != address(0),\n    //                     \"Factory: signer missing\"\n    //                 );\n    //                 MSCall calldata call = mcalls.mcall[j];\n    //                 if (call.to == address(0)) {\n    //                     continue;\n    //                 }\n    //                 Wallet storage wallet = s_accounts_wallet[signers[j]];\n    //                 require(wallet.owner, \"Factory: signer is not owner\");\n\n    //                 (bool success, bytes memory res) = _executeCall(\n    //                     wallet.addr,\n    //                     _ensToAddress(call.ensHash, call.to),\n    //                     call.flags,\n    //                     call.gasLimit,\n    //                     locals.messageHash,\n    //                     call.functionSignature,\n    //                     call.value,\n    //                     call.data\n    //                 );\n\n    //                 if (!success) {\n    //                     emit BatchMultiSigCallFailed(\n    //                         wallet.addr,\n    //                         localNonce,\n    //                         locals.index,\n    //                         j\n    //                     );\n    //                     if (call.flags & ON_FAIL_CONTINUE != 0) {\n    //                         continue;\n    //                     } else if (call.flags & ON_FAIL_STOP != 0) {\n    //                         break;\n    //                     }\n    //                     revert(_getRevertMsg(res));\n    //                 } else if (call.flags & ON_SUCCESS_STOP != 0) {\n    //                     break;\n    //                 } else if (call.flags & ON_SUCCESS_REVERT != 0) {\n    //                     revert(\"Factory: revert on success\");\n    //                 }\n    //                 if (localSessionId & FLAG_PAYMENT != 0) {\n    //                     wallet.debt += _calcRefund(\n    //                         wallet.debt,\n    //                         locals.gas,\n    //                         locals.constGas,\n    //                         uint64(localSessionId >> 16) /*gasPriceLimit*/\n    //                     );\n    //                 }\n    //             }\n    //         }\n    //         s_nonce_group[ng] = _nextNonce(nonce, maxNonce);\n    //         emit BatchTransfered(3, block.number, maxNonce);\n    //     }\n    // }\n\n    // function batchMultiSigCallPacked(\n    //     PackedMSCalls[] calldata tr,\n    //     uint256 nonceGroup\n    // ) external {\n    //     require(msg.sender == s_activator, \"Wallet: sender not allowed\");\n    //     unchecked {\n    //         uint256 ng = nonceGroup;\n    //         uint256 nonce = s_nonce_group[ng] + (ng << GROUP_BIT);\n    //         uint256 maxNonce = 0;\n    //         uint256 constGas = (21000 + msg.data.length * 8) / tr.length;\n    //         for (uint256 i = 0; i < tr.length; i++) {\n    //             uint256 gas = gasleft();\n    //             PackedMSCalls calldata mcalls = tr[i];\n    //             uint256 sessionId = mcalls.sessionId;\n    //             bytes32 messageHash;\n    //             uint256 length = mcalls.mcall.length;\n    //             address[] memory signers = new address[](length);\n    //             {\n    //                 bytes memory msg2 = abi.encode(\n    //                     BATCH_MULTI_SIG_CALL_TYPEHASH,\n    //                     keccak256(\n    //                         abi.encode(\n    //                             PACKED_BATCH_MULTI_SIG_CALL_LIMITS_TYPEHASH,\n    //                             sessionId\n    //                         )\n    //                     )\n    //                 );\n\n    //                 _checkSessionIdLimits(i, sessionId, nonce, maxNonce);\n    //                 maxNonce = sessionId;\n\n    //                 for (uint256 j = 0; j < length; j++) {\n    //                     PackedMSCall calldata call = mcalls.mcall[j];\n    //                     msg2 = abi.encodePacked(\n    //                         msg2,\n    //                         keccak256(\n    //                             abi.encode(\n    //                                 PACKED_BATCH_MULTI_SIG_CALL_TRANSACTION_TYPEHASH,\n    //                                 call.signer,\n    //                                 call.to,\n    //                                 call.value,\n    //                                 call.gasLimit,\n    //                                 call.flags,\n    //                                 call.data\n    //                             )\n    //                         )\n    //                     );\n    //                 }\n\n    //                 messageHash = _messageToRecover(\n    //                     keccak256(msg2),\n    //                     sessionId & FLAG_EIP712 > 0\n    //                 );\n\n    //                 for (uint256 s = 0; s < mcalls.signatures.length; ++s) {\n    //                     Signature calldata signature = mcalls.signatures[s];\n    //                     for (uint256 j = 0; j < length; j++) {\n    //                         PackedMSCall calldata call = mcalls.mcall[j];\n    //                         address signer = _addressFromMessageAndSignature(\n    //                             messageHash,\n    //                             signature.v,\n    //                             signature.r,\n    //                             signature.s\n    //                         );\n    //                         if (\n    //                             signer == call.signer &&\n    //                             signers[j] == address(0)\n    //                         ) {\n    //                             signers[j] = signer;\n    //                         }\n    //                     }\n    //                 }\n    //             }\n    //             uint256 localConstGas;\n    //             uint256 localNonce;\n    //             {\n    //                 localConstGas = constGas;\n    //                 localNonce = nonce;\n    //             }\n\n    //             for (uint256 j = 0; j < length; j++) {\n    //                 require(\n    //                     signers[j] != address(0),\n    //                     \"Factory: signer missing\"\n    //                 );\n    //                 Wallet storage wallet = s_accounts_wallet[signers[j]];\n    //                 require(wallet.owner, \"Factory: signer is not owner\");\n    //                 PackedMSCall calldata call = mcalls.mcall[j];\n    //                 if (call.to == address(0)) {\n    //                     continue;\n    //                 }\n    //                 bytes32 localMessageHash;\n    //                 uint256 localIndex;\n    //                 uint256 localGas;\n    //                 uint256 localSessionId;\n    //                 {\n    //                     localMessageHash = messageHash;\n    //                     localIndex = i;\n    //                     localGas = gas;\n    //                     localSessionId = sessionId;\n    //                 }\n\n    //                 (bool success, bytes memory res) = _executePackedCall(\n    //                     wallet.addr,\n    //                     call.to,\n    //                     call.flags,\n    //                     call.gasLimit,\n    //                     localMessageHash,\n    //                     call.value,\n    //                     call.data\n    //                 );\n\n    //                 if (!success) {\n    //                     emit BatchMultiSigCallPackedFailed(\n    //                         wallet.addr,\n    //                         localNonce,\n    //                         localIndex,\n    //                         j\n    //                     );\n    //                     if (call.flags & ON_FAIL_CONTINUE > 0) {\n    //                         continue;\n    //                     } else if (call.flags & ON_FAIL_STOP > 0) {\n    //                         break;\n    //                     }\n    //                     revert(_getRevertMsg(res));\n    //                 } else if (call.flags & ON_SUCCESS_STOP > 0) {\n    //                     break;\n    //                 } else if (call.flags & ON_SUCCESS_REVERT > 0) {\n    //                     revert(\"Factory: revert on success\");\n    //                 }\n    //                 if (\n    //                     localSessionId & FLAG_PAYMENT > 0 /*refund*/\n    //                 ) {\n    //                     wallet.debt += _calcRefund(\n    //                         wallet.debt,\n    //                         localGas,\n    //                         localConstGas,\n    //                         uint64(localSessionId >> 16) /*gasPriceLimit*/\n    //                     );\n    //                 }\n    //             }\n    //         }\n    //         s_nonce_group[ng] = _nextNonce(nonce, maxNonce);\n    //         emit BatchTransfered(7, block.number, maxNonce);\n    //     }\n    // }\n\n    function uid() external view returns (bytes32) {\n        return s_uid;\n    }\n\n    function activator() external view returns (address) {\n        return s_activator;\n    }\n\n    // /** @notice _calcRefund - calculates the amount of refund to give based on the following input params:\n    //     @param debt(uint256)\n    //     @param gas(uint256)\n    //     @param constGas(uint256)\n    //     @param gasPriceLimit(uint256)\n    //     @return uint88\n    // */\n    // function _calcRefund(\n    //     uint256 debt,\n    //     uint256 gas,\n    //     uint256 constGas,\n    //     uint256 gasPriceLimit\n    // ) private view returns (uint88) {\n    //     return (\n    //         debt != 0\n    //             ? uint88(\n    //                 (tx.gasprice + (gasPriceLimit - tx.gasprice) / 2) *\n    //                     (((gas - gasleft()) * 110) / 100 + constGas + 5000)\n    //             )\n    //             : uint88(\n    //                 (tx.gasprice + (gasPriceLimit - tx.gasprice) / 2) *\n    //                     (((gas - gasleft()) * 110) / 100 + constGas + 8000)\n    //             )\n    //     );\n    // }\n\n    // function _encodeTransfer(Transfer memory call)\n    //     private\n    //     pure\n    //     returns (bytes32 messageHash)\n    // {\n    //     return\n    //         keccak256(\n    //             abi.encode(\n    //                 BATCH_TRANSFER_TYPEHASH,\n    //                 call.token,\n    //                 call.tokenEnsHash,\n    //                 call.to,\n    //                 call.toEnsHash,\n    //                 call.value,\n    //                 uint64(call.sessionId >> NONCE_BIT), // group + nonce\n    //                 uint40(call.sessionId >> AFTER_TS_BIT),\n    //                 uint40(call.sessionId >> BEFORE_TS_BIT),\n    //                 uint32(call.sessionId >> GAS_LIMIT_BIT),\n    //                 uint64(call.sessionId >> GAS_PRICE_LIMIT_BIT),\n    //                 bool(call.sessionId & FLAG_PAYMENT != 0)\n    //             )\n    //         );\n    // }\n\n    // function _calcCallTransactionHash(Call memory call)\n    //     private\n    //     pure\n    //     returns (bytes32)\n    // {\n    //     return\n    //         keccak256(\n    //             abi.encode(\n    //                 BATCH_CALL_TRANSACTION_TYPEHASH,\n    //                 call.to,\n    //                 call.ensHash,\n    //                 call.value,\n    //                 uint64(call.sessionId >> NONCE_BIT), // group + nonce\n    //                 uint40(call.sessionId >> AFTER_TS_BIT),\n    //                 uint40(call.sessionId >> BEFORE_TS_BIT),\n    //                 uint32(call.sessionId >> GAS_LIMIT_BIT),\n    //                 uint64(call.sessionId >> GAS_PRICE_LIMIT_BIT),\n    //                 bool(call.sessionId & FLAG_STATICCALL != 0),\n    //                 bool(call.sessionId & FLAG_PAYMENT != 0),\n    //                 call.functionSignature\n    //             )\n    //         );\n    // }\n\n    // function _encodeCall(Call memory call)\n    //     private\n    //     view\n    //     returns (bytes32 messageHash, address to)\n    // {\n    //     to = _ensToAddress(call.ensHash, call.to);\n\n    //     messageHash = call.functionSignature !=\n    //         0xc5d2460186f7233c927e7db2dcc703c0e500b653ca82273b7bfad8045d85a470\n    //         ? keccak256(\n    //             abi.encode(\n    //                 call.typeHash,\n    //                 _calcCallTransactionHash(call),\n    //                 call.data\n    //             )\n    //         )\n    //         : keccak256(\n    //             abi.encode(call.typeHash, _calcCallTransactionHash(call))\n    //         );\n    // }\n\n    // function _calcMultiSigTransactionHash(MSCall memory call)\n    //     private\n    //     pure\n    //     returns (bytes32)\n    // {\n    //     uint16 flags = call.flags;\n\n    //     return\n    //         keccak256(\n    //             abi.encode(\n    //                 BATCH_MULTI_SIG_CALL_TRANSACTION_TYPEHASH,\n    //                 call.signer,\n    //                 call.to,\n    //                 call.ensHash,\n    //                 call.value,\n    //                 call.gasLimit,\n    //                 flags & FLAG_STATICCALL,\n    //                 flags & ON_FAIL_CONTINUE > 0,\n    //                 flags & ON_FAIL_STOP > 0,\n    //                 flags & ON_SUCCESS_STOP > 0,\n    //                 flags & ON_SUCCESS_REVERT > 0,\n    //                 call.functionSignature\n    //             )\n    //         );\n    // }\n\n    // function _checkSessionIdLimits(\n    //     uint256 i,\n    //     uint256 sessionId,\n    //     uint256 nonce,\n    //     uint256 maxNonce\n    // ) private view {\n    //     if (i == 0) {\n    //         require(\n    //             sessionId >> NONCE_BIT >= nonce >> NONCE_BIT,\n    //             \"Factory: group+nonce too low\"\n    //         );\n    //     } else {\n    //         require(\n    //             maxNonce >> NONCE_BIT < sessionId >> NONCE_BIT,\n    //             \"Factory: should be ordered\"\n    //         );\n    //     }\n    //     require(\n    //         tx.gasprice <= uint64(sessionId >> GAS_PRICE_LIMIT_BIT),\n    //         \"Factory: gas price too high\"\n    //     );\n    //     require(\n    //         block.timestamp > uint40(sessionId >> AFTER_TS_BIT),\n    //         \"Factory: too early\"\n    //     );\n    //     require(\n    //         block.timestamp < uint40(sessionId >> BEFORE_TS_BIT),\n    //         \"Factory: too late\"\n    //     );\n    // }\n\n    // function _nextNonce(uint256 nonce, uint256 maxNonce)\n    //     private\n    //     pure\n    //     returns (uint256)\n    // {\n    //     require(\n    //         (maxNonce < nonce + (1 << MAX_NONCE_JUMP_BIT)) &&\n    //             (uint40(maxNonce >> NONCE_BIT) >= uint40(nonce >> NONCE_BIT)),\n    //         \"Factory: group+nonce too high\"\n    //     );\n    //     return\n    //         (maxNonce &\n    //             0x000000ffffffffff000000000000000000000000000000000000000000000000) +\n    //         (1 << NONCE_BIT);\n    // }\n}\n",
  "sourcePath": "/Users/brendook/Documents/Projects/Kirobo.io/ki-eth-contracts/contracts/FactoryProxy.sol",
  "compiler": {
    "name": "solc",
    "version": "0.8.13+commit.abaa5c0e.Emscripten.clang"
  },
  "schemaVersion": "3.3.4",
  "updatedAt": "2022-05-26T06:17:26.056Z",
  "devdoc": {
    "kind": "dev",
    "methods": {
      "owner()": {
        "details": "Returns the address of the current owner."
      },
      "renounceOwnership()": {
        "details": "Leaves the contract without owner. It will not be possible to call `onlyOwner` functions anymore. Can only be called by the current owner. NOTE: Renouncing ownership will leave the contract without an owner, thereby removing any functionality that is only available to the owner."
      },
      "transferOwnership(address)": {
        "details": "Transfers ownership of the contract to a new account (`newOwner`). Can only be called by the current owner."
      }
    },
    "version": 1
  },
  "userdoc": {
    "kind": "user",
    "methods": {},
    "version": 1
  }
}